:020000040800F2
:10000000000400202B100008690100086B010008A3
:100010006F0100087301000877010008000000006C
:100020000000000000000000000000007B0100084C
:100030007D010008000000007F0100088101000828
:100040004B1000084B1000084B1000084B10000824
:100050004B1000084B1000084B1000084B10000814
:100060004B1000084B1000084B1000084B10000804
:100070004B1000084B1000084B1000084B100008F4
:100080004B1000084B1000084B1000084B100008E4
:100090004B1000084B1000084B1000084B100008D4
:1000A0004B1000084B1000084B1000084B100008C4
:1000B0004B1000084B1000084B1000084B100008B4
:1000C0004B1000084B1000084B1000084B100008A4
:1000D0004B100008AB0200084B1000084B10000842
:1000E0004B1000084B1000084B1000084B10000884
:1000F0004B1000084B1000084B1000084B10000874
:100100004B1000084B1000084B1000084B10000863
:100110004B1000084B1000084B1000084B10000853
:100120004B1000084B1000084B1000084B10000843
:10013000DFF80CD000F090FF0048004745010008B0
:100140001804002000F044FF482000F0C9F800F037
:1001500019F841200349088054200880492008806C
:1001600000BFFEE704380140704700BFFEE700BF54
:10017000FEE700BFFEE700BFFEE77047704770472D
:100180007047000000B587B0012144F2050000F07F
:1001900077FC4FF40070ADF8040003208DF80600E2
:1001A00018208DF8070001A9464800F0BDF94FF46A
:1001B0008060ADF8040004208DF8070001A94148D3
:1001C00000F0B2F925208DF8080003208DF8090011
:1001D0008DF80A0001208DF80B0002A800F0DBF872
:1001E0004FF4165003900020ADF81000ADF8120047
:1001F000ADF81400ADF818000C20ADF8160003A9F6
:10020000314800F0E4FC012240F225512E4800F074
:100210005BFD01212C4800F04BFD0121082000F07E
:100220002FFC0120ADF8040010208DF807000320FA
:100230008DF8060001A9254800F076F90220ADF8F6
:10024000040048208DF8070001A9204800F06CF94F
:100250000121102000F014FC3020ADF80400102023
:100260008DF8070003208DF8060001A9184800F05A
:100270005BF90120174908601749C1F89401002073
:100280001649086040F28A2000F044F807B000BD2B
:1002900000BF0D49098801F080010029F9D0C0F3A1
:1002A0000801094A121D1180704710B540F225510E
:1002B000054800F0D7FD18B1034800F06AFDC4B24C
:1002C00010BD00000008014000380140000C014052
:1002D0000010014090012242000022428081214210
:1002E00010B504466FF0040000F09FF8E11704EB2E
:1002F0005171C1F3C701234A11701046007800EB19
:100300004001C1EBC0104FF6FF7101EAC0001E4969
:10031000088010BD01461C4A12884A434FF0E02372
:100320005A6100229A6101221A6100BF4FF0E02257
:10033000106900F001021AB100F48032002AF5D0F1
:1003400000224FF0E0231A619A61704701460D4A7E
:1003500012784A434FF0E0235A6100229A61012249
:100360001A6100BF4FF0E022106900F001021AB1DB
:1003700000F48032002AF5D000224FF0E0231A6109
:100380009A617047000000200200002031490143BB
:10039000314A1160704770B5002100230F22C478E4
:1003A00004B32D4C246804F4E064C4F5E064210A2D
:1003B000C1F10403CA40447804FA03F1847814407C
:1003C00021430901254C0678A155047804F01F0546
:1003D0000124AC4005786D11AD0005F1E025C5F8AC
:1003E000004109E0047804F01F050124AC401C4DD5
:1003F0000678761145F8264070BD1A4A0A40024335
:10040000154B1B1F1A60704739B1134A121D126831
:100410000243114B1B1D1A6006E00F4A121D1268A1
:1004200082430D4B1B1D1A607047042808D14FF002
:10043000E021096941F004014FF0E022116107E079
:100440004FF0E021096921F004014FF0E022116131
:10045000704700000000FA050CED00E000E400E049
:1004600080E100E080FFFF1F10B50446C4488442CD
:1004700008D10121042000F01DFB0021042000F020
:1004800019FB46E0BF48844208D10121082000F052
:1004900011FB0021082000F00DFB3AE0BA4884422D
:1004A00008D10121102000F005FB0021102000F0F0
:1004B00001FB2EE0B548844208D10121202000F044
:1004C000F9FA0021202000F0F5FA22E0B048844239
:1004D00008D10121402000F0EDFA0021402000F079
:1004E000E9FA16E0AB48844208D10121802000F0EF
:1004F000E1FA0021802000F0DDFA0AE0A6488442FB
:1005000007D10121801500F0D5FA0021A01500F0D7
:10051000D1FA10BD10B50121084600F0CBFA002138
:10052000012000F0C7FA10BD2DE9F0410246002578
:100530000026002000230024002791F803C00CF0BF
:100540000F0591F803C00CF0100CBCF1000F03D0A4
:1005500091F802C04CEA050591F800C0BCF1000F0B
:1005600031D0146800202BE04FF0010C0CFA00F39E
:10057000B1F800C00CEA03069E4220D183004FF080
:100580000F0C0CFA03F7BC4305FA03FC4CEA040415
:1005900091F803C0BCF1280F06D14FF0010C0CFA02
:1005A00000FCC2F814C00AE091F803C0BCF1480F87
:1005B00005D14FF0010C0CFA00FCC2F810C0401C31
:1005C0000828D1D31460B1F800C0BCF1FF0F34DDAE
:1005D000546800202EE000F1080C4FF0010808FAE2
:1005E0000CF3B1F800C00CEA03069E4221D183004F
:1005F0004FF00F0C0CFA03F7BC4305FA03FC4CEA6E
:10060000040491F803C0BCF1280F05D100F1080CD7
:1006100008FA0CF8C2F8148091F803C0BCF1480F36
:1006200007D100F1080C4FF0010808FA0CF8C2F8E5
:100630001080401C0828CED35460BDE8F0814FF6EE
:10064000FF710180022181700421C1707047024650
:10065000002093680B400BB1012000E000207047A0
:100660000146886880B2704702460020D3680B407C
:100670000BB1012000E0002070470146C86880B23D
:10068000704701617047416170470AB1016100E044
:1006900041617047C16070474FF480320A43826104
:1006A00081618261826982697047024600203B4B0A
:1006B00018684FF68073184040EA02100843374B21
:1006C000186070473649C8617047F0B50A46002384
:1006D000002400210025314E7168C0F3034583B228
:1006E00000F44016B6F5401F08D121F070612B4E82
:1006F000766826F07066294F7E6012E000F480165E
:10070000B6F5801F06D1032606FA05F4A14341F091
:10071000706106E0460D360103FA06F6B14341F07A
:10072000706122B1460D360103FA06F631431B4EC5
:100730007160F0BD30B500228B071C0F0F2303FA48
:1007400004F2164B08338C1053F824309343134CA7
:1007500008348D1044F8253023468C1053F824308B
:100760008C07240F00FA04F423430C4C08348D103A
:1007700044F8253030BD0A49DC310860704700007C
:1007800000080140000C014000100140001401402D
:1007900000180140001C0140002001400000014001
:1007A00000002042DF48006840F00100DD49086099
:1007B00008464068DC490840DA4948600846006855
:1007C000DA490840D74908600846006820F48020CC
:1007D00008600846406820F4FE0048604FF41F009F
:1007E00088607047CF49096821F48031CD4A116093
:1007F0001146096821F480211160B0F5803F03D0D3
:10080000B0F5802F0ED106E0C649096841F4803169
:10081000C44A116007E0C349096841F4A021C14AF4
:10082000116000E000BF00BF704710B50146002214
:10083000002300204A11012A02D1BA4C236806E0A5
:10084000022A02D1B74C236A01E0B64C636A01F078
:100850001F02012494401C400CB1012000E0002044
:1008600010BD38B5002000900024002500BF3120C5
:10087000FFF7DBFF05460098401C00900098B0F59C
:10088000A06F01D0002DF2D03120FFF7CEFF08B1CC
:10089000012400E00024204638BD01460020A14A82
:1008A000106820F0F80040EAC10010607047A049CD
:1008B00008607047024600209A4B586820F47C106C
:1008C00042EA01031843974B5860704798490866FD
:1008D000704701460020934A506820F00300084307
:1008E000506070478F48406800F00C007047014628
:1008F00000208C4A506820F0F00008435060704798
:1009000001460020874A506820F4E06008435060A8
:10091000704701460020834A506820F4605040EA46
:10092000C1005060704729B17E4A527A02437D4B24
:100930005A7204E07B4A527A82437A4B5A72704769
:100940007B49D8310860704701460020754A5068DD
:1009500020F440400843506070470021714A203223
:100960001170704A82F82010012802D004280AD1A0
:1009700004E001216B4A2032117005E00521694A2B
:100980002032117000E000BF00BF70476949086065
:1009900070476449096A0143624A116270476549B8
:1009A00044390860704730B500210022002400233C
:1009B0005C4D6D6805F00C0121B1042905D00829B2
:1009C00023D105E05C4D056022E05B4D05601FE032
:1009D000544D6D6805F47012524D6D6805F4803405
:1009E000022505EB92421CB9544D554305600BE0BE
:1009F0004C4D6D6805F400351DB1504D55430560F3
:100A000002E04D4D5543056002E04B4D056000BFCF
:100A100000BF444D6D6805F0F0010909484D6B5C5D
:100A20000568DD4045603F4D6D6805F4E061090AE9
:100A3000434D6B5C4568DD4085603A4D6D6805F45B
:100A40006051C90A3E4D6B5C4568DD40C560354D5F
:100A50006D6805F44041890B3A4D6B5CC568B5FB88
:100A6000F3F5056130BD29B12E4A526902432D4B81
:100A70005A6104E02B4A526982432A4B5A617047FB
:100A800029B1284A92690243264B9A6104E0254A1B
:100A900092698243234B9A61704729B1214AD269F6
:100AA0000243204BDA6104E01E4AD26982431D4BA7
:100AB000DA61704729B11B4AD2680243194BDA60E8
:100AC00004E0184AD2688243164BDA60704729B1B5
:100AD000144A12690243134B1A6104E0114A126965
:100AE0008243104B1A6170471249403908607047C1
:100AF0000F49C86470470B49C87170470948406A7C
:100B000040F0807007494862704701460020054A5E
:100B100092680A400AB1012000E0002070470149B4
:100B200088727047001002400000FFF8FFFFF6FED9
:100B3000000042428004424200127A0000093D0057
:100B4000040000201400002010B50446E24884424E
:100B500009D101218803FFF7ADFF00214FF4804048
:100B6000FFF7A8FF32E0DD48844209D101214804A3
:100B7000FFF7ADFF00214FF40030FFF7A8FF25E09D
:100B8000D748844209D101218804FFF7A0FF002142
:100B90004FF48020FFF79BFF18E0D248844209D130
:100BA0000121C804FFF793FF00214FF40020FFF755
:100BB0008EFF0BE0CC48844208D101210805FFF7E5
:100BC00086FF00214FF48010FFF781FF10BD2DE953
:100BD000F04786B005460E460024A24600BF00BF7F
:100BE0000027B08900B100BF2F462C8A4CF6FF7059
:100BF0000440F08804432C82AC894EF6F310044084
:100C0000B08831890843718908430443AC81AC8AB8
:100C10004FF6FF400440B0890443AC8201A8FFF7BF
:100C2000C2FEAD48874202D1DDF810A001E0DDF838
:100C30000CA00AEBCA0000EB0A1031688900B0FB77
:100C4000F1F86420B8FBF0F004012009642101FBF5
:100C50001089322000EB0910B0FBF1F000F00F001A
:100C600004432C8106B0BDE8F0874FF416510160B3
:100C700000218180C18001810C214181002181817D
:100C8000704710B502460020108A4FF2FF0318404B
:100C90000B884C8823438C882343CC8823431843F8
:100CA000108210BD0021018041808180C180704789
:100CB00021B1828942F40052828104E082894DF69A
:100CC000FF731A4082817047F0B503460024002666
:100CD0000025002040F66A17B94200D100BF18462F
:100CE000C1F3421401F01F06012707FA06F5012C93
:100CF00001D10C3004E0022C01D1103000E014309E
:100D00001AB107682F43076002E00768AF43076026
:100D1000F0BD1AB1838A0B43838202E0838A8B433E
:100D200083827047028A4FF6F0731A400282028A69
:100D30000A430282704782894FF2FF731A40828110
:100D400082890A438281704721B1828942F002027E
:100D5000828104E082894FF6FD731A4082817047D8
:100D6000028A4FF6DF731A400282028A0A43028225
:100D7000704721B1028A42F48042028204E0028A72
:100D80004BF6FF731A4002827047C1F3080282805B
:100D9000704701468888C0F308007047818941F098
:100DA000010181817047028BD2B20283028B42EA39
:100DB000012202837047028B02F47F420283028B7E
:100DC0000A430283704721B1828A42F02002828264
:100DD00004E0828A4FF6DF731A408282704721B1A5
:100DE000828A42F01002828204E0828A4FF6EF7318
:100DF0001A408282704721B1828A42F008028282C0
:100E000004E0828A4FF6F7731A4082827047828A22
:100E10004FF6FB731A408282828A0A4382827047AD
:100E200021B1828A42F00202828204E0828A4FF675
:100E3000FD731A408282704702460020B1F5007FA0
:100E400000D100BF13880B400BB1012000E000204F
:100E5000704701F40072B2F5007F00D100BFCA43B1
:100E60000280704770B50246002400230025002050
:100E700040F66A16B14200D100BFC1F3421501F03D
:100E80001F03012606FA03F3012D02D19689334090
:100E900006E0022D02D1168A334001E0968A3340E3
:100EA0000C12012606FA04F41688344013B10CB172
:100EB000012000E0002070BD10B50022002340F6A4
:100EC0006A14A14200D100BF0A1201249440A3B2C7
:100ED000DC43048010BD00000038014000440040A5
:100EE00000480040004C0040005000400CB500207D
:100EF000019000904848006840F4803046490860FE
:100F000000BF4548006800F4003000900198401C84
:100F10000190009818B90198B0F5A06FF1D13E4842
:100F2000006800F4003010B10120009001E00020C2
:100F300000900098012844D13848006840F0100023
:100F4000364908600846006820F00300086008463B
:100F5000006840F0020008602F4840682E49486051
:100F60000846406848600846406840F48060486031
:100F70000846406820F47C1048600846406840F409
:100F8000E81048600846006840F08070086000BFC4
:100F90002148006800F000700028F9D01E48406821
:100FA00020F003001C4948600846406840F00200F9
:100FB000486000BF1848406800F00C000828F9D1CC
:100FC00001E000BFFEE70CBD10B5FFF78FFF10BDBD
:100FD00010B51148006840F001000F49086008464C
:100FE00040680F4908400C494860084600680D49B0
:100FF0000840094908600846006820F4802008601D
:101000000846406820F4FE0048604FF41F008860E6
:10101000FFF7DAFF10BD0000001002400020024080
:101020000000FFF8FFFFF6FE7047084880470849B8
:1010300081F3088807480047FEE7FEE7FEE7FEE782
:10104000FEE7FEE7FEE7FEE7FEE7FEE72910000801
:101050001804002031010008064C074D06E0E06846
:1010600040F0010394E8070098471034AC42F6D3EF
:10107000FFF762F89C100008BC10000802E008C8E6
:10108000121F08C1002AFAD170477047002001E002
:1010900001C1121F002AFBD170470000BC100008DC
:1010A00000000020180000007C100008D410000888
:1010B00018000020000400008C1000080000000050
:1010C00000000000010203040102030406070809EE
:0410D0000204060808
:0400000508000131BD
:00000001FF
