:020000040800F2
:1000000000040020FB250008F5020008F7020008A4
:10001000FB020008FF0200080303000800000000C4
:1000200000000000000000000000000007030008BE
:1000300009030008000000000B0300080D0300087E
:100040001B2600081B2600081B2600081B2600088C
:100050001B2600081B2600081B2600081B2600087C
:100060001B2600081B2600081B2600081B2600086C
:100070001B2600081B2600081B2600081B2600085C
:100080001B2600081B2600081B2600081B2600084C
:100090001B2600081B2600081B2600081B2600083C
:1000A0001B2600081B2600081B2600081B2600082C
:1000B0001B2600081B2600081B2600081B2600081C
:1000C0001B2600081B2600081B2600081B2600080C
:1000D0001B26000831040008391100081B260008FF
:1000E0001B2600081B2600081B2600081B260008EC
:1000F0001B2600081B2600081B2600081B260008DC
:100100001B2600081B2600081B2600081B260008CB
:100110001B2600081B2600081B2600081B260008BB
:100120001B2600081B2600081B2600081B260008AB
:1001300000F002F800F03AF80AA090E8000C8244BF
:100140008344AAF10107DA4501D100F02FF8AFF29C
:10015000090EBAE80F0013F0010F18BFFB1A43F0A5
:100160000103184784270000A4270000103A24BF89
:1001700078C878C1FAD8520724BF30C830C144BF0C
:1001800004680C607047000000230024002500264E
:10019000103A28BF78C1FBD8520728BF30C148BFEA
:1001A0000B6070471FB51FBD10B510BD02F04DFAB2
:1001B0001146FFF7F7FF00F009F802F06BFA03B4FD
:1001C000FFF7F2FF03BC02F073FA000002F0E8F957
:1001D000482001F0E7F901F04EF800F0CFFA0020D6
:1001E0004049087048708870C87068200871AA205B
:1001F00048718871C8710872487288726820C87224
:1002000013200873002048731620C87301F0A8F863
:10021000042408E03348807B3249095D08443149B1
:100220008873601CC4B20D2CF4DB002403E02E485C
:100230000455601CC4B2C82CF9DBC82200212A482E
:1002400001F03FF9C8220021284801F064F800F0CD
:100250005FF800F00FFF4FF47A7001F0BDF94FF432
:100260007A7001F0B9F94FF47A7001F0B5F94FF4F2
:100270007A7001F0B1F94FF47A7001F0ADF94FF4F2
:100280007A7001F0A9F94FF47A7001F0A5F94FF4F2
:100290007A7001F0A1F94FF47A7001F09DF94FF4F2
:1002A0007A7001F099F94FF47A7001F095F94FF4F2
:1002B0007A7001F091F94FF47A7001F08DF94FF4F2
:1002C0007A7001F089F9032000F0D3F809E00848BA
:1002D00002780021084600F08CFB4FF47A7001F0A0
:1002E0007BF9F4E7B4000020440200200C03002056
:1002F00000000020704700BFFEE700BFFEE700BF20
:10030000FEE700BFFEE77047704770477047000088
:1003100000B587B0012144F2050001F0A5FC4FF4BF
:100320000070ADF8040003208DF8060018208DF849
:10033000070001A9604801F0EBF94FF48060ADF8C7
:10034000040004208DF8070001A95B4801F0E0F9E2
:1003500025208DF8080001208DF809008DF80A008D
:100360008DF80B0002A802F040F84FF4E130039042
:100370000020ADF81000ADF81200ADF81400ADF893
:1003800018000C20ADF8160003A94C4801F099FEA6
:10039000012240F22551494801F010FF0121474850
:1003A00001F000FF0121082001F05EFC0120ADF802
:1003B000040010208DF8070003208DF8060001A925
:1003C0003F4801F0A5F900203E4908600220ADF841
:1003D000040048208DF8070001A9394801F098F978
:1003E0003020ADF8040048208DF8070001A93648F8
:1003F00001F08EF94FF47A7001F0EEF801203349E4
:10040000C1F8800107B000BD00BF2C49098801F088
:1004100040010029F9D0C0F30801284A121D1180BB
:1004200000BF2649098801F040010029F9D0704732
:1004300010B540F22551214801F08EFF30B11F4820
:1004400001F021FF2249234A12788854214800787C
:10045000401C2049087010BD30B504460D460023ED
:1004600004E0E05CFFF7D0FF581C83B2AB42F8DB3E
:1004700030BD10B50446012C06D0022C09D0032C47
:100480000CD0642C14D10EE005211348FFF7E4FFD3
:100490000FE00A211148FFF7DFFF0AE008211048AA
:1004A000FFF7DAFF05E011210E48FFF7D5FF00E066
:1004B00000BF00BF10BD000000080140003801402F
:1004C000000C014080812142001001400080214247
:1004D00050000020000000200E000020130000202B
:1004E0001D0000202500002070B5044608250121CC
:1004F000F94801F0BAF9012001F08AF80821F6481C
:1005000001F0B5F9052001F083F824E004F0800043
:1005100038B10421F04801F0A8F9012001F078F881
:1005200006E00421EC4801F0A2F9012001F070F886
:100530000821E94801F099F9032001F069F8082140
:10054000E54801F094F9012001F062F86006040E1C
:10055000012001F05DF8281EA5F10101CDB2D5D131
:1005600070BD70B5044608250121DB4801F07FF914
:10057000012001F04DF80821D74801F078F9052055
:1005800001F046F824E004F0800038B10421D2489C
:1005900001F06BF9012001F03BF806E00421CE48A0
:1005A00001F065F9012001F033F80821CA4801F093
:1005B0005CF9032001F02CF80821C74801F057F935
:1005C000012001F025F86006040E012001F020F85A
:1005D000281EA5F10101CDB2D5D170BD70B504467C
:1005E0000D4605F1B001C8B2FFF7BBFF102141EA8B
:1005F0001410FFF7B6FF04F00F0141F00100FFF700
:10060000B0FF70BD70B50646002415E004F1B001DE
:10061000C8B2FFF7A6FF0120FFF7A3FF1020FFF7E6
:10062000A0FF002504E03046FFF75EFF681CC5B25E
:10063000802DF8DB601CC4B2082CE7DB70BD70B500
:10064000002415E004F1B001C8B2FFF78AFF0120D1
:10065000FFF787FF1020FFF784FF002504E000204C
:10066000FFF742FF681CC5B2802DF8DB601CC4B2E6
:10067000082CE7DB70BD10B5044644F0AE00FFF770
:1006800070FF10BD10B504462046FFF76AFF10BD8D
:1006900010B50446D520FFF764FF2046FFF761FF41
:1006A00010BD10B50446A820FFF75BFF2046FFF7FA
:1006B00058FF10BD10B50446D320FFF752FF204667
:1006C000FFF74FFF10BD10B504468D20FFF749FF1F
:1006D00044F01000FFF745FF10BD10B5044644F08C
:1006E0004000FFF73EFF10BD10B504462020FFF785
:1006F00038FF2046FFF735FF10BD10B5044644F023
:10070000A000FFF72EFF10BD10B5044644F0C00056
:10071000FFF727FF10BD10B50446DA20FFF721FFD1
:1007200044F00200FFF71DFF10BD10B50446812004
:10073000FFF717FF2046FFF714FF10BD10B5044662
:10074000D920FFF70EFF2046FFF70BFF10BD10B5B5
:100750000446DB20FFF705FF2046FFF702FF10BD30
:1007600010B5044644F0A400FFF7FBFE10BD10B521
:10077000044644F0A600FFF7F4FE10BD08B50121C1
:10078000102001F071FA0F20ADF8000010208DF854
:10079000030003208DF8020069464F4800F0B8FFBF
:1007A00008214D4801F061F802214B4801F05FF843
:1007B000322000F011FF0221474801F056F80020D6
:1007C000FFF759FF0A2000F007FF8020FFF760FFC6
:1007D0000A2000F001FF3F20FFF763FF0A2000F02E
:1007E000FBFE0020FFF766FF0A2000F0F5FE002068
:1007F000FFF773FF0A2000F0EFFE0420FFF763FF0E
:100800000A2000F0E9FE0220FFF76EFF0A2000F048
:10081000E3FE0120FFF771FF0A2000F0DDFE082053
:10082000FFF772FF0A2000F0D7FE1020FFF773FFDA
:100830000A2000F0D1FECF20FFF777FF0A2000F05A
:10084000CBFEF120FFF77AFF0A2000F0C5FE402022
:10085000FFF77DFF0A2000F0BFFE0020FFF780FFBA
:100860000A2000F0B9FE0020FFF781FF0A2000F007
:10087000B3FE0120FFF7FFFE0A2000F0ADFE0020CE
:10088000FFF7C0FE0A2000F0A7FE00210846FFF790
:10089000A5FE0A2000F0A0FE08BD2DE9F0410646A5
:1008A0000F4615460024A04639463046FFF796FE0F
:1008B0002878203800F0FF0800BF09E008EB480165
:1008C000064A02EB4101085DFFF70EFE601CC4B250
:1008D000062CF3DBBDE8F08100100140BE260008C5
:1008E0002DE9F04782468846C8F30749642600256B
:1008F00023E005EB45014906080E5146FFF76EFE61
:1009000099FBF6F00A2190FBF1F201FB1200103086
:10091000C7B2002409E007EB4701FA4A02EB4101A4
:10092000085DFFF7E1FD601CC4B2062CF3DB0A2072
:1009300096FBF0F0C6B2681CC5B2032DD9DBC8F334
:1009400007296426002524E005EB450149002831EC
:10095000C8B25146FFF742FE99FBF6F00A2190FB20
:10096000F1F201FB12001030C7B2002409E007EBDE
:100970004701E44A02EB4101085DFFF7B5FD601C49
:10098000C4B2062CF3DB0A2096FBF0F0C6B2681C5A
:10099000C5B2032DD8DB08F0FF096426002524E04A
:1009A00005EB450149005031C8B25146FFF716FE2C
:1009B00099FBF6F00A2190FBF1F201FB12001030D6
:1009C000C7B2002409E007EB4701CE4A02EB410120
:1009D000085DFFF789FD601CC4B2062CF3DB0A201A
:1009E00096FBF0F0C6B2681CC5B2032DD8DBBDE89B
:1009F000F0872DE9F05F06468B4617464FF0000959
:100A00004FF0010A4FF001087FB959463046FFF711
:100A1000E5FD002406E0BB496031085DFFF764FD99
:100A2000601CC4B2062CF6DB43E0BA46002508E0A1
:100A30000A20BAFBF0FA08EB88004FEA4008681C6D
:100A4000C5B2BAF1000FF3D1062000FB05607E2885
:100A500005DD05EB45004000C0F17E00C6B20A206E
:100A6000B8FBF0F823E059463046FFF7B7FDB7FB77
:100A7000F8F00A21B0FBF1F201FB120909F11000B4
:100A800000F0FF09002409E009EB49019D4A02EB4F
:100A90004101085DFFF728FD601CC4B2062CF3DBA2
:100AA0000A20B8FBF0F8B01DC6B2681EC5B2002D12
:100AB000D9DCBDE8F09F2DE9F04385B092A207CACA
:100AC00002AB07C393A103C9CDE9000105260527A1
:100AD0004FF000084FF00009002518E000213046D3
:100AE000FFF77CFD00240CE002A9495D203901EBF1
:100AF0004101844A02EB4101085DFFF7F5FC601CEF
:100B0000C4B2062CF0DBB01DC6B2681CC5B20A2DFB
:100B1000E4DB002518E001213846FFF75FFD0024E3
:100B20000CE01DF80510203901EB4101754A02EB7C
:100B30004101085DFFF7D8FC601CC4B2062CF0DB55
:100B4000B81DC7B2681CC5B2062DE4DB002519E04C
:100B500003214046FFF742FD00240BE005F111019F
:100B600001EB4101674A02EB4101085DFFF7BCFC64
:100B7000601CC4B2062CF1DB08F1100000F0FF0885
:100B8000681CC5B2082DE3DB002537E00621484686
:100B9000FFF724FD7DB900240BE005F1190101EBFD
:100BA0004101584A02EB4101085DFFF79DFC601CC2
:100BB000C4B2062CF1DB012D1ADB002406E05149FA
:100BC0006631085DFFF790FC601CC4B2062CF6DBB2
:100BD00000240BE005F10F0101EB4101494A02EB52
:100BE0004101085DFFF780FC601CC4B2062CF1DBFC
:100BF00009F1100000F0FF09681CC5B2082DC5DB23
:100C000005B0BDE8F0832DE9F04107464FF000083C
:100C10000026002F59D0002454E0082C19DA0421B2
:100C20004046FFF7DBFC00250DE0601CB84205D113
:100C300034493C31485DFFF757FC02E00020FFF7E4
:100C400053FC681CC5B2062DEFDB08F1100000F064
:100C5000FF08082C18D107213046FFF7BFFC0025FC
:100C60000DE0601CB84205D126493C31485DFFF7D4
:100C70003BFC02E00020FFF737FC681CC5B2062DE4
:100C8000EFDB06F11000C6B2082C19DDF11CC8B26A
:100C90000721FFF7A3FC00250DE0601CB84205D139
:100CA00018493C31485DFFF71FFC02E00020FFF7C8
:100CB0001BFC681CC5B2062DEFDB06F11000C6B2A6
:100CC000601CC4B2102CA8DB49E0002445E0082CCD
:100CD00010DA04214046FFF781FC002504E00020E3
:100CE000FFF702FC681CC5B2062DF8DB08F1100006
:100CF00000F0FF08082C1BD107213046FFF76EFCDF
:100D0000002510E0BE260008486F6C642054696D11
:100D1000653A000053746174653A00000020FFF7E3
:100D2000E3FB681CC5B2062DF8DB06F11000C6B265
:100D3000082C10DDF11CC8B20721FFF74FFC00257D
:100D400004E00020FFF7D0FB681CC5B2062DF8DBDD
:100D500006F11000C6B2601CC4B2102CB7DBBDE8AF
:100D6000F0812DE9FF4107462D26BCA103C9CDE93D
:100D70000201BCA103C9CDE90001EFB9002418E0CC
:100D800001213046FFF72AFC00250CE002A9095D8D
:100D9000203901EB4101B54A02EB4101485DFFF703
:100DA000A3FB681CC5B2062DF0DBB01DC6B2601CEB
:100DB000C4B2052CE4DB1CE0002418E0012130461D
:100DC000FFF70CFC00250CE01DF80410203901EBA6
:100DD0004101A64A02EB4101485DFFF785FB681C13
:100DE000C5B2062DF0DBB01DC6B2601CC4B2052C26
:100DF000E4DBBDE8FF812DE9F041064646250A2ED9
:100E000050DA00212846FFF7E9FB00240BE006F149
:100E1000100101EB4101954A02EB4101085DFFF72A
:100E200063FB601CC4B2062CF1DBA81DC5B2002117
:100E30002846FFF7D3FB002404E00020FFF754FB13
:100E4000601CC4B2062CF8DBA81DC5B200212846E0
:100E5000FFF7C4FB002405E08549085DFFF744FB6C
:100E6000601CC4B2062CF7DBA81DC5B200212846C1
:100E7000FFF7B4FB002404E00020FFF735FB601C03
:100E8000C4B2062CF8DBA81DC5B200212846FFF726
:100E9000A5FB002404E00020FFF726FB601CC4B281
:100EA000062CF8DB0A2E63DB642E61DA002128466B
:100EB000FFF794FB0A2096FBF0F0C7B200240BE08A
:100EC00007F1100101EB4101684A02EB4101085DA5
:100ED000FFF70AFB601CC4B2062CF1DBA81DC5B2EB
:100EE00000212846FFF77AFB0A2096FBF0F100FB71
:100EF0001160C7B200240BE007F1100101EB4101C2
:100F00005A4A02EB4101085DFFF7EEFA601CC4B2D9
:100F1000062CF1DBA81DC5B200212846FFF75EFBB9
:100F2000002404E00020FFF7DFFA601CC4B2062CA6
:100F3000F8DBA81DC5B200212846FFF74FFB0024AF
:100F400005E04B49085DFFF7CFFA601CC4B2062CE0
:100F5000F7DBA81DC5B200212846FFF73FFB0024A0
:100F600004E00020FFF7C0FA601CC4B2062CF8DBD6
:100F7000642E71DB00212846FFF730FB642096FBCE
:100F8000F0F0C7B200240BE007F1100101EB4101C2
:100F9000364A02EB4101085DFFF7A6FA601CC4B2B5
:100FA000062CF1DBA81DC5B200212846FFF716FB71
:100FB000642096FBF0F100FB11600A2190FBF1F038
:100FC000C7B200240BE007F1100101EB4101274AF1
:100FD00002EB4101085DFFF787FA601CC4B2062CE2
:100FE000F1DBA81DC5B200212846FFF7F7FA0A2059
:100FF00096FBF0F100FB1160C7B200240BE007F193
:10100000100101EB4101194A02EB4101085DFFF7B4
:101010006BFA601CC4B2062CF1DBA81DC5B200211E
:101020002846FFF7DBFA002404E00020FFF75CFA13
:10103000601CC4B2062CF8DBA81DC5B200212846EE
:10104000FFF7CCFA002405E00949085DFFF74CFAE8
:10105000601CC4B2062CF7DBBDE8F08157616974EF
:10106000200000005374617274000000BE26000866
:10107000B028000800B587B00121052000F0F4FD7C
:101080000121480400F0FDFD0420ADF80400032018
:101090008DF8060018208DF8070001A95C4800F0C3
:1010A00037FB0820ADF8040004208DF8070001A9E3
:1010B000574800F02DFB0220ADF8040010208DF8F9
:1010C000070003208DF8060001A9514800F020FB1D
:1010D00000205049086026208DF8080001208DF876
:1010E00009008DF80A008DF80B0002A801F07DF9C7
:1010F0004FF4166003904FF48050ADF810000020BC
:10110000ADF812004FF48060ADF814000020ADF887
:1011100018000C20ADF8160003A93F4800F0D1FFDD
:10112000012240F225513C4801F048F801213A489B
:1011300001F038F807B000BD10B540F2255136482F
:1011400001F00AF900283BD0334801F09CF8C4B202
:10115000682C0FD13148008807280BD10120304975
:10116000087030482D49098844542C480088401C98
:101170002A490880682C0DD12948007850B90020F0
:101180002649088027480988445424480088401C80
:1011900022490880162C06D1224820490988445447
:1011A00000201F490870682C0AD0162C08D01D4852
:1011B0001A490988445419480088401C1749088076
:1011C00010BD00BF1449098801F040010029F9D081
:1011D000C0F30801104A121D118000BF0E49098892
:1011E00001F040010029F9D0704730B504460D46A2
:1011F000012008490860002304E0E05CFFF7E1FFFC
:10120000581C83B2AB42F8DB00200249086030BDB5
:1012100000080140840121420044004002000020F7
:10122000360000207C01002070B50546002405E052
:10123000601CC4B2C82C01DD002070BD0221D4485E
:1012400000F0C5FE0028F3D02946D14800F06CFE1E
:10125000002405E0601CC4B2C82C01DD0020ECE7CE
:101260000121CB4800F0B3FE0028F3D0C84800F0BD
:101270005DFEC0B2E1E700B587B0012141F2040094
:1012800000F0F2FC1020ADF818008DF81B000320D0
:101290008DF81A0006A9BF4800F03AFA0120BE49AD
:1012A0000860E020ADF8180018208DF81B0003201E
:1012B0008DF81A0006A9B74800F02AFAE021B548CF
:1012C00000F0D3FA0020ADF804004FF48270ADF8BE
:1012D00006000020ADF808000220ADF80A00012049
:1012E000ADF80C004002ADF80E000820ADF810007B
:1012F0000020ADF812000720ADF8140001A9A448A1
:1013000000F03CFD0121A24800F0DDFDFF20FFF7C9
:101310008BFF07B000BD2DE9F04106460C4617468D
:1013200000209D4908600320FFF77EFFC4F30740BB
:10133000FFF77AFFC4F30720FFF776FFE0B2FFF76D
:1013400073FF002505E0FF20FFF76EFF7055681C56
:1013500085B2BD42F7DB01208F490860BDE8F0810E
:1013600010B5002400208C4908609020FFF75CFF36
:101370000020FFF759FF0020FFF756FF0020FFF77E
:1013800053FFFF20FFF750FF44EA0024FF20FFF740
:101390004BFF044301208149C1F89001204610BD54
:1013A00010B5002400207C4908600520FFF73CFFB1
:1013B000FF20FFF739FF044601207849C1F890016A
:1013C000204610BD10B500BFFFF7EAFF00F0010096
:1013D0000028F9D110BD10B500206F490860062023
:1013E000FFF722FF01206D49C1F8900110BD2DE9E2
:1013F000F04106460C461746FFF7EDFF0020664910
:1014000008600220FFF710FFC4F30740FFF70CFF4E
:10141000C4F30720FFF708FFE0B2FFF705FF002540
:1014200004E0705DFFF700FF681C85B2BD42F8DB89
:10143000012059490860FFF7C5FFBDE8F0812DE99B
:10144000F04107460E461446F0B2C0F58075AC4236
:1014500000DC254612E02A4631463846FFF7C7FF32
:10146000AC4200D10BE02F442E44601B84B2B4F593
:10147000807F02DD4FF4807500E02546EBE700BF7A
:10148000BDE8F08110B504462403FFF7A4FFFFF781
:1014900099FF0020404908602020FFF7C5FEC4F3F3
:1014A0000740FFF7C1FEC4F30720FFF7BDFEE0B21F
:1014B000FFF7BAFE01203949C1F89001FFF782FF1A
:1014C00010BD2DE9F05F81460F461646DFF8D0B01B
:1014D0004FEA1738C7F30B0ACAF58054A64200DC5E
:1014E000344644E04FEA08314FF480525846FFF743
:1014F00012FF002508E00AEB05001BF80000FF289A
:1015000000D003E0681C85B2A542F4DB00BFA54211
:1015100016DA4046FFF7B6FF002507E019F8050088
:1015200005EB0A010BF80100681C85B2A542F5DB4A
:101530004FEA08314FF480525846FFF780FF04E02D
:10154000224639464846FFF77AFFA64200D10FE00F
:1015500008F101084FF0000AA1442744301B86B26D
:10156000B6F5805F02DD4FF4805400E03446B9E701
:1015700000BFBDE8F09F10B50020074908600420B7
:10158000FFF752FE01200549C1F8900110BD00008F
:10159000003001400008014090012142000021423A
:1015A000D403002010B504466FF0040000F067FF7C
:1015B000E11704EB5171C1F3C701234A11701046C2
:1015C000007800EB4001C1EBC0104FF6FF7101EA5B
:1015D000C0001E49088010BD01461C4A12884A43BB
:1015E0004FF0E0235A6100229A6101221A6100BF84
:1015F0004FF0E022106900F001021AB100F48032CD
:10160000002AF5D000224FF0E0231A619A6170475A
:1016100001460D4A12784A434FF0E0235A610022F6
:101620009A6101221A6100BF4FF0E022106900F0B8
:1016300001021AB100F48032002AF5D000224FF0E6
:10164000E0231A619A617047380000203A000020B8
:1016500010B50446C448844208D10121042000F09A
:101660001DFB0021042000F019FB46E0BF48844226
:1016700008D10121082000F011FB0021082000F012
:101680000DFB3AE0BA48844208D10121102000F055
:1016900005FB0021102000F001FB2EE0B54884423C
:1016A00008D10121202000F0F9FA0021202000F0CB
:1016B000F5FA22E0B048844208D10121402000F030
:1016C000EDFA0021402000F0E9FA16E0AB48844230
:1016D00008D10121802000F0E1FA0021802000F0F3
:1016E000DDFA0AE0A648844207D10121801500F006
:1016F000D5FA0021A01500F0D1FA10BD10B50121D6
:10170000084600F0CBFA0021012000F0C7FA10BD16
:101710002DE9F04102460025002600200023002488
:10172000002791F803C00CF00F0591F803C00CF0EE
:10173000100CBCF1000F03D091F802C04CEA050573
:1017400091F800C0BCF1000F31D0146800202BE0EC
:101750004FF0010C0CFA00F3B1F800C00CEA0306DC
:101760009E4220D183004FF00F0C0CFA03F7BC43CC
:1017700005FA03FC4CEA040491F803C0BCF1280FFD
:1017800006D14FF0010C0CFA00FCC2F814C00AE0BC
:1017900091F803C0BCF1480F05D14FF0010C0CFAD1
:1017A00000FCC2F810C0401C0828D1D31460B1F866
:1017B00000C0BCF1FF0F34DD546800202EE000F1C2
:1017C000080C4FF0010808FA0CF3B1F800C00CEA5D
:1017D00003069E4221D183004FF00F0C0CFA03F751
:1017E000BC4305FA03FC4CEA040491F803C0BCF1C5
:1017F000280F05D100F1080C08FA0CF8C2F8148083
:1018000091F803C0BCF1480F07D100F1080C4FF06C
:10181000010808FA0CF8C2F81080401C0828CED342
:101820005460BDE8F0814FF6FF71018002218170A4
:101830000421C17070470246002093680B400BB131
:10184000012000E0002070470146886880B27047A0
:1018500002460020D3680B400BB1012000E00020BD
:1018600070470146C86880B27047016170474161A6
:1018700070470AB1016100E041617047C160704783
:101880004FF480320A438261816182618269826998
:101890007047024600203B4B18684FF68073184093
:1018A00040EA02100843374B186070473649C86158
:1018B0007047F0B50A460023002400210025314E70
:1018C0007168C0F3034583B200F44016B6F5401FBB
:1018D00008D121F070612B4E766826F07066294F92
:1018E0007E6012E000F48016B6F5801F06D1032654
:1018F00006FA05F4A14341F0706106E0460D360199
:1019000003FA06F6B14341F0706122B1460D36018B
:1019100003FA06F631431B4E7160F0BD30B500226C
:101920008B071C0F0F2303FA04F2164B08338C109D
:1019300053F824309343134C08348D1044F8253069
:1019400023468C1053F824308C07240F00FA04F43B
:1019500023430C4C08348D1044F8253030BD0A491F
:10196000DC3108607047000000080140000C0140B5
:10197000001001400014014000180140001C01400B
:10198000002001400000014000002042DF480068C4
:1019900040F00100DD49086008464068DC49084025
:1019A000DA49486008460068DA490840D7490860C3
:1019B0000846006820F4802008600846406820F44B
:1019C000FE0048604FF41F0088607047CF490968E7
:1019D00021F48031CD4A11601146096821F480213B
:1019E0001160B0F5803F03D0B0F5802F0ED106E036
:1019F000C649096841F48031C44A116007E0C3490F
:101A0000096841F4A021C14A116000E000BF00BF95
:101A1000704710B501460022002300204A11012A18
:101A200002D1BA4C236806E0022A02D1B74C236ADD
:101A300001E0B64C636A01F01F02012494401C408F
:101A40000CB1012000E0002010BD38B5002000904E
:101A50000024002500BF3120FFF7DBFF054600987A
:101A6000401C00900098B0F5A06F01D0002DF2D07E
:101A70003120FFF7CEFF08B1012400E0002420460A
:101A800038BD01460020A14A106820F0F80040EA65
:101A9000C10010607047A0490860704702460020EE
:101AA0009A4B586820F47C1042EA01031843974B84
:101AB0005860704798490866704701460020934A6D
:101AC000506820F003000843506070478F4840681A
:101AD00000F00C007047014600208C4A506820F04E
:101AE000F00008435060704701460020874A506864
:101AF00020F4E06008435060704701460020834AAC
:101B0000506820F4605040EAC1005060704729B12D
:101B10007E4A527A02437D4B5A7204E07B4A527AE3
:101B200082437A4B5A7270477B49D83108607047BC
:101B300001460020754A506820F440400843506038
:101B400070470021714A20321170704A82F82010CB
:101B5000012802D004280AD104E001216B4A203276
:101B6000117005E00521694A2032117000E000BFC4
:101B700000BF70476949086070476449096A0143BA
:101B8000624A11627047654944390860704730B550
:101B900000210022002400235C4D6D6805F00C013B
:101BA00021B1042905D0082923D105E05C4D056049
:101BB00022E05B4D05601FE0544D6D6805F4701226
:101BC000524D6D6805F48034022505EB92421CB934
:101BD000544D554305600BE04C4D6D6805F40035E0
:101BE0001DB1504D5543056002E04D4D5543056014
:101BF00002E04B4D056000BF00BF444D6D6805F02D
:101C0000F0010909484D6B5C0568DD4045603F4DBA
:101C10006D6805F4E061090A434D6B5C4568DD4081
:101C200085603A4D6D6805F46051C90A3E4D6B5CA4
:101C30004568DD40C560354D6D6805F44041890B50
:101C40003A4D6B5CC568B5FBF3F5056130BD29B154
:101C50002E4A526902432D4B5A6104E02B4A5269C5
:101C600082432A4B5A61704729B1284A926902433C
:101C7000264B9A6104E0254A92698243234B9A617C
:101C8000704729B1214AD2690243204BDA6104E04E
:101C90001E4AD26982431D4BDA61704729B11B4A43
:101CA000D2680243194BDA6004E0184AD2688243D2
:101CB000164BDA60704729B1144A12690243134B7C
:101CC0001A6104E0114A12698243104B1A6170478D
:101CD00012494039086070470F49C86470470B4982
:101CE000C87170470948406A40F0807007494862EF
:101CF000704701460020054A92680A400AB1012057
:101D000000E00020704701498872704700100240CF
:101D10000000FFF8FFFFF6FE00004242800442424E
:101D200000127A0000093D003C0000204C00002019
:101D300010B50446BE48844208D101218014FFF743
:101D4000ADFF0021A014FFF7A9FF16E0B9488442B7
:101D500008D101210014FFF7AEFF00212014FFF786
:101D6000AAFF0AE0B448844207D10121C013FFF75B
:101D7000A2FF0021E013FFF79EFF10BD10B5002267
:101D8000028802F441520B884C8823438C882343F9
:101D9000CC8823430C8923434C8923438C892343D8
:101DA000CC8923431A430280838B4FF2FF74234074
:101DB00083830B8A038210BD2DE9F04F85B0054661
:101DC0000C464FF0000902274FF000084FF0010BBE
:101DD0000026B246A88B4FF240010840A88302209B
:101DE0002884B5F81C902089022801D100BF38E072
:101DF000A08810B94FF0010B01E04FF0020B8D48A5
:101E0000854200D100E000BF6846FFF7C0FEDDF864
:101E100000A0E088B0F5007F0AD14FEA1A2000EB5D
:101E2000800040002189B0FBF1F0401D86B20BE03C
:101E30004FEA4B10BAFBF0F000EB80004000218924
:101E4000B0FBF1F0401D86B20A20B6FBF0F606F0BA
:101E50000108A6EB0800C0F34F074FF6FF7000EA39
:101E60000828022F01DBFF2F02DD02274FF00008B8
:101E7000E08840EA080038432884A0886189084344
:101E8000618808432188084340F4006040EA09095A
:101E9000A5F81C9005B0BDE8F08F002101804180BD
:101EA0008180C180018141818181C18107210182BD
:101EB00070470021018041808180C1800221018121
:101EC00000214181704721B1028842F04002028026
:101ED00004E002884FF6BF731A400280704721B1B8
:101EE000828B42F48062828304E0828B4FF6FF3360
:101EF0001A408283704730B5002400230C1101255D
:101F0000A540ABB21AB185881D43858002E0858863
:101F10009D43858030BD1AB183880B43838002E0E6
:101F200083888B438380704781817047014688890D
:101F300070474FF6FF62914204D0028842F48072EB
:101F4000028004E002884FF6FF631A400280704767
:101F500021B1828842F00402828004E082884FF638
:101F6000FB731A408280704702884FF2FF731A4059
:101F7000028002880A4302807047018841F4805140
:101F80000180704721B1028842F40052028004E0CF
:101F900002884DF6FF731A40028070470246002007
:101FA000012901D0108B00E0908A70470146088A11
:101FB0007047B1F5804F04D1028842F4804202801C
:101FC00004E002884BF6FF731A4002807047024615
:101FD000002013890B400BB1012000E00020704766
:101FE000CA4302817047F0B5024600200024002356
:101FF000002501F00F070126BE40B4B20B110126E7
:102000009E40B3B2968806EA03051689264016B1AB
:102010000DB1012000E00020F0BD10B5002201F05C
:102020000F040123A3409AB2D343038110BD0000E3
:102030000030014000380040003C004010B504462C
:10204000E248844209D101218803FFF727FE0021DD
:102050004FF48040FFF722FE32E0DD48844209D190
:1020600001214804FFF727FE00214FF40030FFF75D
:1020700022FE25E0D748844209D101218804FFF7D8
:102080001AFE00214FF48020FFF715FE18E0D24819
:10209000844209D10121C804FFF70DFE00214FF44D
:1020A0000020FFF708FE0BE0CC48844208D1012154
:1020B0000805FFF700FE00214FF48010FFF7FBFD3D
:1020C00010BD2DE9F04786B005460E460024A24615
:1020D00000BF00BF0027B08900B100BF2F462C8A87
:1020E0004CF6FF700440F08804432C82AC894EF615
:1020F000F3100440B08831890843718908430443D0
:10210000AC81AC8A4FF6FF400440B0890443AC82F6
:1021100001A8FFF73CFDAD48874202D1DDF810A0D1
:1021200001E0DDF80CA00AEBCA0000EB0A103168F0
:102130008900B0FBF1F86420B8FBF0F0040120093D
:10214000642101FB1089322000EB0910B0FBF1F093
:1021500000F00F0004432C8106B0BDE8F0874FF477
:102160001651016000218180C18001810C214181D3
:1021700000218181704710B502460020108A4FF27D
:10218000FF0318400B884C8823438C882343CC885A
:1021900023431843108210BD0021018041808180BB
:1021A000C180704721B1828942F40052828104E0EB
:1021B00082894DF6FF731A4082817047F0B503465D
:1021C000002400260025002040F66A17B94200D1FD
:1021D00000BF1846C1F3421401F01F06012707FA99
:1021E00006F5012C01D10C3004E0022C01D1103095
:1021F00000E014301AB107682F43076002E0076857
:10220000AF430760F0BD1AB1838A0B43838202E0BB
:10221000838A8B4383827047028A4FF6F0731A4099
:102220000282028A0A430282704782894FF2FF7358
:102230001A40828182890A438281704721B1828952
:1022400042F00202828104E082894FF6FD731A4057
:1022500082817047028A4FF6DF731A400282028A37
:102260000A430282704721B1028A42F4804202820C
:1022700004E0028A4BF6FF731A4002827047C1F3F2
:1022800008028280704701468888C0F308007047C2
:10229000818941F0010181817047028BD2B20283B2
:1022A000028B42EA012202837047028B02F47F42D2
:1022B0000283028B0A430283704721B1828A42F073
:1022C0002002828204E0828A4FF6DF731A40828203
:1022D000704721B1828A42F01002828204E0828A31
:1022E0004FF6EF731A408282704721B1828A42F022
:1022F0000802828204E0828A4FF6F7731A408282D3
:102300007047828A4FF6FB731A408282828A0A43A0
:102310008282704721B1828A42F00202828204E006
:10232000828A4FF6FD731A4082827047024600206F
:10233000B1F5007F00D100BF13880B400BB1012025
:1023400000E00020704701F40072B2F5007F00D178
:1023500000BFCA430280704770B5024600240023C4
:102360000025002040F66A16B14200D100BFC1F33B
:10237000421501F01F03012606FA03F3012D02D1D5
:102380009689334006E0022D02D1168A334001E0DF
:10239000968A33400C12012606FA04F4168834405B
:1023A00013B10CB1012000E0002070BD10B5002277
:1023B000002340F66A14A14200D100BF0A12012492
:1023C0009440A3B2DC43048010BD000000380140FB
:1023D0000044004000480040004C004000500040D5
:1023E00031490143314A1160704770B50021002323
:1023F0000F22C47804B32D4C246804F4E064C4F5BF
:10240000E064210AC1F10403CA40447804FA03F1EC
:102410008478144021430901254C0678A15504789D
:1024200004F01F050124AC4005786D11AD0005F1E5
:10243000E025C5F8004109E0047804F01F050124F7
:10244000AC401C4D0678761145F8264070BD1A4AFE
:102450000A400243154B1B1F1A60704739B1134ADB
:10246000121D12680243114B1B1D1A6006E00F4A31
:10247000121D126882430D4B1B1D1A607047042801
:1024800008D14FF0E021096941F004014FF0E0224A
:10249000116107E04FF0E021096921F004014FF0DC
:1024A000E0221161704700000000FA050CED00E029
:1024B00000E400E080E100E080FFFF1F0CB5002099
:1024C000019000904848006840F480304649086018
:1024D00000BF4548006800F4003000900198401C9F
:1024E0000190009818B90198B0F5A06FF1D13E485D
:1024F000006800F4003010B10120009001E00020DD
:1025000000900098012844D13848006840F010003D
:10251000364908600846006820F003000860084655
:10252000006840F0020008602F4840682E4948606B
:102530000846406848600846406840F4806048604B
:102540000846406820F47C1048600846406840F423
:10255000E81048600846006840F08070086000BFDE
:102560002148006800F000700028F9D01E4840683B
:1025700020F003001C4948600846406840F0020013
:10258000486000BF1848406800F00C000828F9D1E6
:1025900001E000BFFEE70CBD10B5FFF78FFF10BDD7
:1025A00010B51148006840F001000F490860084666
:1025B00040680F4908400C494860084600680D49CA
:1025C0000840094908600846006820F48020086037
:1025D0000846406820F4FE0048604FF41F00886001
:1025E000FFF7DAFF10BD000000100240002002409B
:1025F0000000FFF8FFFFF6FE70470B4880470B49CD
:1026000081F308880A480047FEE7FEE7FEE7FEE799
:10261000FEE7FEE7FEE7FEE7FEE7FEE705480649C0
:10262000064A074B70470000F9250008381C0020B7
:102630003101000838140020381C00203818002010
:1026400038180020704770477047754600F02CF826
:10265000AE4605006946534620F00700854618B08F
:1026600020B5FFF7DBFFBDE820404FF000064FF03C
:1026700000074FF000084FF0000B21F00701AC46B7
:10268000ACE8C009ACE8C009ACE8C009ACE8C009D6
:102690008D46704710B50446AFF300802046BDE874
:1026A0001040FDF78CBD000000487047D413002097
:1026B00001491820ABBEFEE726000200704700006B
:1026C000000000000000002F0000000007000700CD
:1026D00000147F147F1400242A7F2A1200626408E9
:1026E0001323003649552250000005030000000066
:1026F0001C224100000041221C000014083E081466
:102700000008083E0808000000A060000008080853
:102710000808000060600000002010080402003E6D
:102720005149453E0000427F400000426151494608
:10273000002141454B31001814127F1000274545F8
:102740004539003C4A49493000017109050300360A
:102750004949493600064949291E0000363600001D
:102760000000563600000008142241000014141422
:10277000141400004122140800020151090600321D
:102780004959513E007C1211127C007F494949365B
:10279000003E41414122007F4141221C007F4949C6
:1027A0004941007F09090901003E4149497A007FFA
:1027B0000808087F0000417F4100002040413F01A0
:1027C000007F08142241007F40404040007F020CFF
:1027D000027F007F0408107F003E4141413E007FA0
:1027E00009090906003E4151215E007F0919294669
:1027F0000046494949310001017F0101003F404045
:10280000403F001F2040201F003F4038403F0063F2
:102810001408146300070870080700615149454314
:1028200000007F41410000552A552A5500004141D2
:102830007F000004020102040040404040400000CC
:1028400001020400002054545478007F4844443866
:1028500000384444442000384444487F00385454ED
:10286000541800087E0901020018A4A4A47C007F6B
:10287000080404780000447D4000004080847D000E
:10288000007F102844000000417F4000007C0418B5
:102890000478007C0804047800384444443800FC80
:1028A000242424180018242418FC007C080404089C
:1028B00000485454542000043F444020003C404011
:1028C000207C001C2040201C003C4030403C004448
:1028D00028102844001CA0A0A07C004464544C4450
:1028E000808080808080000008290008000000208F
:1028F000500000006C01000858290008500000201A
:10290000E81B000088010008000000000000000033
:102910000000000000004154490D0A41542B43506F
:10292000494E3F0D0A41542B4353510D0A41544423
:1029300031353933333936363631393B0D0A0000FB
:102940000000000000000000010203040102030473
:0829500006070809020406084D
:0400000508000131BD
:00000001FF
