:020000040800F2
:1000000000040020733A0008690200086B0200082F
:100010006F02000873020008770200080000000069
:100020000000000000000000000000007B0200084B
:100030007D020008000000007F0200088102000825
:10004000933A0008933A0008933A0008933A00085C
:10005000933A0008933A0008933A0008933A00084C
:10006000933A0008933A0008933A0008933A00083C
:10007000933A0008933A0008933A0008933A00082C
:10008000933A0008933A0008933A0008933A00081C
:10009000933A0008933A0008933A0008933A00080C
:1000A000933A0008933A0008933A0008933A0008FC
:1000B000933A00085B1E0008933A0008933A000840
:1000C000933A0008933A0008933A0008933A0008DC
:1000D000933A0008A50300080D180008933A000899
:1000E000933A0008933A0008933A0008933A0008BC
:1000F000933A0008933A0008933A0008933A0008AC
:10010000933A0008933A0008933A0008933A00089B
:10011000933A0008933A0008933A0008933A00088B
:10012000933A0008933A0008933A0008933A00087B
:1001300000F002F800F03AF80AA090E8000C8244BF
:100140008344AAF10107DA4501D100F02FF8AFF29C
:10015000090EBAE80F0013F0010F18BFFB1A43F0A5
:1001600001031847FC3B00001C3C0000103A24BF70
:1001700078C878C1FAD8520724BF30C830C144BF0C
:1001800004680C607047000000230024002500264E
:10019000103A28BF78C1FBD8520728BF30C148BFEA
:1001A0000B6070471FB51FBD10B510BD03F089FC73
:1001B0001146FFF7F7FF00F009F803F0A7FC03B4BE
:1001C000FFF7F2FF03BC03F0AFFC000003F024FCD8
:1001D000482001F057FE01F078FC00F04DFD00F0E2
:1001E00051F801F0B1FA01F008FC01F086FB01F0D2
:1001F000CEFB00F0B2FB04464FF47A7001F05CFED7
:1002000000F091FA0446204601F0CBF900F067FBBC
:100210001249088001F09CFB114801F0DDF9002132
:10022000084601F0E9FD01F0CBF9002415E00D4886
:100230000088B0F5617F0DDB00200A49088000F0DE
:100240004EFB0649088001F083FB054801F0C4F924
:10025000601C84B2642001F02FFEE8E7100000204B
:100260009C0300200E000020704700BFFEE700BF87
:10027000FEE700BFFEE700BFFEE77047704770472C
:100280007047000000B587B0012144F2050002F07C
:100290005BF94FF40070ADF8040003208DF8060000
:1002A00018208DF8070001A9F94801F0A1FE4FF4CC
:1002B0008060ADF8040004208DF8070001A9F4481F
:1002C00001F096FE25208DF8080001208DF8090028
:1002D0008DF80A008DF80B0002A802F0F6FC4FF42E
:1002E000E13003900020ADF81000ADF81200ADF839
:1002F0001400ADF818000C20ADF8160003A9E5486D
:1003000002F04FFB012240F22551E24802F0C6FB09
:100310000121E04802F0B6FB0121082002F014F9A7
:100320000120ADF8040010208DF8070003208DF89F
:10033000060001A9D84801F05BFE0020D7490860FB
:100340000220ADF8040048208DF8070001A9D2482A
:1003500001F04EFE3020ADF8040048208DF8070073
:1003600001A9CF4801F044FE4FF47A7001F0A4FDDA
:100370000120CC49C1F8800107B000BD00BFC549CC
:10038000098801F040010029F9D0C0F30801C14AF1
:10039000121D118000BFBF49098801F040010029EA
:1003A000F9D0704770B540F22551BA4802F044FCCC
:1003B000002864D0B74802F0D6FBC4B2BA4800881F
:1003C00002284BDBB848008800F4004058BBB64810
:1003D000008800F4804078B10A2C06D1B248008829
:1003E00040F40040B049088038E0AF480088C0F3CE
:1003F0000D00AD49088031E00D2C06D1AA480088D7
:1004000040F48040A849088028E0A7480088C0F34D
:100410000900801E85B2A5484455A3480088401CA9
:10042000A14908801AE0A2480078401CA049087041
:100430000D2C03D1084600789E4908700A2C03D180
:100440009B4800789B4948709A48407899490978B8
:10045000401A012802D1022093490880924800885E
:1004600020B90D2C02D101208F4908808E480088C8
:10047000012804D10A2C02D102208B49088070BDCA
:1004800030B504460D46002304E0E05CFFF776FF3C
:10049000581C83B2AB42F8DB30BD10B50446062CC5
:1004A00028D005DC3FD2DFE804F03E0C11161B20FB
:1004B000072C24D0092C27D00A2C2AD0642C32D126
:1004C0002CE005217C48FFF7DBFF2DE00A217B486B
:1004D000FFF7D6FF28E008217948FFF7D1FF23E096
:1004E0001B217848FFF7CCFF1EE020217648FFF75C
:1004F000C7FF19E00B217548FFF7C2FF14E00C217C
:100500007348FFF7BDFF0FE010217248FFF7B8FFF7
:100510000AE011217048FFF7B3FF05E011216F4891
:10052000FFF7AEFF00E000BF00BF10BD30B50146D1
:100530000C2001F1300399B2694B1980632924DD45
:10054000642391FBF3F33033DAB20346441CE0B288
:10055000644CE254642391FBF3F403FB14130A2468
:1005600093FBF4F33033DAB20346441CE0B25D4C43
:10057000E2540A2391FBF3F403FB14133033DAB291
:100580000346441CE0B2574CE254092917DD6429A4
:1005900015DA0A2391FBF3F33033DAB20346441C35
:1005A000E0B2504CE2540A2391FBF3F403FB141322
:1005B0003033DAB20346441CE0B24A4CE2540A2912
:1005C0000BDA0A2391FBF3F403FB14133033DAB292
:1005D0000346441CE0B2434CE2542C250346441C21
:1005E000E0B2404CE55438250346441CE0B23D4C93
:1005F000E55430250346441CE0B23A4CE5540D2541
:100600000346441CE0B2374CE5540A250346441C1B
:10061000E0B2344CE55430BD0146002205E00878D4
:10062000314B9854491C501C82B208780028F6D1EE
:10063000D0B27047F0B505460E462CA0FFF7ECFF90
:100640000746002405E0285DE119274A5054601C44
:1006500084B2B442F7DBE01980B2F0BD10B500BF40
:100660001148008800F400400028F9D0142001F05F
:1006700023FC0E4800784F2850D10C4840784B2876
:100680004CD100200849088008490870487010BD06
:100690000008014000380140000C014080812142E7
:1006A000001001400080214200000020E0000020F6
:1006B0001400002015000020170000201C0000205E
:1006C000260000202E0000204900002069000020A4
:1006D0007400002094000020A4000020B500002039
:1006E00004000020800000209005002068747470D1
:1006F0003A2F2F3131382E38392E3232312E3135D2
:100700003A383038302F6765744D6573732F5265F2
:1007100063653F6D6573736167653D0000209F49A8
:100720000880012010BD10B50220FFF7B6FEFFF7CC
:1007300095FF04460CB1012010BD0420FFF7ADFE6B
:10074000FFF78CFF04460CB10220F5E70520FFF708
:10075000A4FEFFF783FF04460CB10320ECE706205C
:10076000FFF79BFEFFF77AFF04460CB10420E3E796
:100770004FF4FA7001F0A0FB0720FFF78EFEFFF7A1
:100780006DFF04460CB10520D6E70620FFF785FE75
:10079000FFF764FF04460CB10620CDE70020CBE74D
:1007A00010B500BF7D48008800F400400028F9D053
:1007B0004FF4487001F080FB4FF4487001F07CFB6F
:1007C000774800782B281AD175484078512816D1DF
:1007D00073488078482812D17148C07854280ED1C7
:1007E0006F48007954280AD100206C4908806C4970
:1007F000087048708870C8700871487110BD00207A
:10080000664908800120F9E770B503460C460020D0
:1008100033E0195CCD1701EB15752D11614EB55400
:100820003146895C092905DD3146895C3731354619
:10083000A95404E05B49895C30315A4DA954511CDC
:100840008AB2195CCD1701EB15752D11A1EB0515B9
:10085000544EB5543146895C092905DD3146895C21
:1008600037313546A95404E04E49895C30314D4D4D
:10087000A954511C8AB2411C88B2A042C9DB70BD88
:1008800010B500BF4548008800F400400028F9D0AA
:10089000142001F011FB4248007843281AD1404847
:1008A00040784F2816D13E4880784E2812D13C48D7
:1008B000C0784E280ED13A48007945280AD1002048
:1008C000364908803649087048708870C8700871C9
:1008D000487110BD0020314908800120F9E770B54A
:1008E00001F036F804460CB1012070BD2820FFF756
:1008F0001DFE054629462C48FFF7C2FDFFF7C0FF45
:1009000004460CB10220F0E728A0FFF785FE302254
:1009100014213348FFF778FF58212248FFF7B0FD34
:10092000FFF79CFE04460CB10320DEE7C82001F06F
:10093000C3FA0920FFF7B1FDFFF732FF04460CB1FF
:100940000420D2E70A20FFF7A8FDFFF729FF04469D
:100950000CB10520C9E70020C7E700BF0F48008899
:1009600000F400400028F9D00D48007852280FD13B
:100970000B48407844280BD109488078592807D182
:100980000020064908800649087048708870704742
:100990000020024908800120F9E700000000002043
:1009A000E000002090050020800000206874747032
:1009B0003A2F2F3131382E38392E3232312E31350F
:1009C0003A383038302F52656365697665722F7416
:1009D0006573743F6D6573736167653D000000006A
:1009E0009C03002070B5044608250121F94801F058
:1009F000ACFB012001F07CFA0821F64801F0A7FBCE
:100A0000052001F075FA24E004F0800038B10421DB
:100A1000F04801F09AFB012001F06AFA06E0042197
:100A2000EC4801F094FB012001F062FA0821E9484A
:100A300001F08BFB032001F05BFA0821E54801F08F
:100A400086FB012001F054FA6006040E012001F03B
:100A50004FFA281EA5F10101CDB2D5D170BD70B5F8
:100A6000044608250121DB4801F071FB012001F05B
:100A70003FFA0821D74801F06AFB052001F038FA57
:100A800024E004F0800038B10421D24801F05DFB7D
:100A9000012001F02DFA06E00421CE4801F057FBB9
:100AA000012001F025FA0821CA4801F04EFB03207D
:100AB00001F01EFA0821C74801F049FB012001F0AE
:100AC00017FA6006040E012001F012FA281EA5F1A3
:100AD0000101CDB2D5D170BD70B504460D4605F10A
:100AE000B001C8B2FFF7BBFF102141EA1410FFF7B5
:100AF000B6FF04F00F0141F00100FFF7B0FF70BD39
:100B000070B50646002415E004F1B001C8B2FFF745
:100B1000A6FF0120FFF7A3FF1020FFF7A0FF00258D
:100B200004E03046FFF75EFF681CC5B2802DF8DB9D
:100B3000601CC4B2082CE7DB70BD70B5002415E062
:100B400004F1B001C8B2FFF78AFF0120FFF787FF69
:100B50001020FFF784FF002504E00020FFF742FF8C
:100B6000681CC5B2802DF8DB601CC4B2082CE7DB22
:100B700070BD10B5044644F0AE00FFF770FF10BD25
:100B800010B504462046FFF76AFF10BD10B50446B5
:100B9000D520FFF764FF2046FFF761FF10BD10B5B9
:100BA0000446A820FFF75BFF2046FFF758FF10BD63
:100BB00010B50446D320FFF752FF2046FFF74FFF42
:100BC00010BD10B504468D20FFF749FF44F010001A
:100BD000FFF745FF10BD10B5044644F04000FFF795
:100BE0003EFF10BD10B504462020FFF738FF204619
:100BF000FFF735FF10BD10B5044644F0A000FFF725
:100C00002EFF10BD10B5044644F0C000FFF727FFCB
:100C100010BD10B50446DA20FFF721FF44F00200B2
:100C2000FFF71DFF10BD10B504468120FFF717FF29
:100C30002046FFF714FF10BD10B50446D920FFF77A
:100C40000EFF2046FFF70BFF10BD10B50446DB205A
:100C5000FFF705FF2046FFF702FF10BD10B5044661
:100C600044F0A400FFF7FBFE10BD10B5044644F0AD
:100C7000A600FFF7F4FE10BD08B50121102001F019
:100C800063FC0F20ADF8000010208DF80300032056
:100C90008DF8020069464F4801F0AAF908214D4835
:100CA00001F053FA02214B4801F051FA322001F0D1
:100CB00003F90221474801F048FA0020FFF759FFE5
:100CC0000A2001F0F9F88020FFF760FF0A2001F008
:100CD000F3F83F20FFF763FF0A2001F0EDF8002052
:100CE000FFF766FF0A2001F0E7F80020FFF773FF27
:100CF0000A2001F0E1F80420FFF763FF0A2001F069
:100D0000DBF80220FFF76EFF0A2001F0D5F8012082
:100D1000FFF771FF0A2001F0CFF80820FFF772FFFC
:100D20000A2001F0C9F81020FFF773FF0A2001F034
:100D3000C3F8CF20FFF777FF0A2001F0BDF8F120BC
:100D4000FFF77AFF0A2001F0B7F84020FFF77DFF98
:100D50000A2001F0B1F80020FFF780FF0A2001F01F
:100D6000ABF80020FFF781FF0A2001F0A5F8012071
:100D7000FFF7FFFE0A2001F09FF80020FFF7C0FEFA
:100D80000A2001F099F800210846FFF7A5FE0A2085
:100D900001F092F808BD2DE9F04106460F461546D0
:100DA0000024A04639463046FFF796FE28782038C2
:100DB00000F0FF0800BF09E008EB4801064A02EB1B
:100DC0004101085DFFF70EFE601CC4B2062CF3DB88
:100DD000BDE8F08100100140363B00082DE9F047E6
:100DE00082468846C8F307496426002523E005EBC0
:100DF00045014906080E5146FFF76EFE99FBF6F0D5
:100E00000A2190FBF1F201FB12001030C7B200245E
:100E100009E007EB4701FA4A02EB4101085DFFF7E1
:100E2000E1FD601CC4B2062CF3DB0A2096FBF0F057
:100E3000C6B2681CC5B2032DD9DBC8F307296426E6
:100E4000002524E005EB450149002831C8B2514690
:100E5000FFF742FE99FBF6F00A2190FBF1F201FB4D
:100E600012001030C7B2002409E007EB4701E44A42
:100E700002EB4101085DFFF7B5FD601CC4B2062C12
:100E8000F3DB0A2096FBF0F0C6B2681CC5B2032D56
:100E9000D8DB08F0FF096426002524E005EB4501B6
:100EA00049005031C8B25146FFF716FE99FBF6F0E3
:100EB0000A2190FBF1F201FB12001030C7B20024AE
:100EC00009E007EB4701CE4A02EB4101085DFFF75D
:100ED00089FD601CC4B2062CF3DB0A2096FBF0F0FF
:100EE000C6B2681CC5B2032DD8DBBDE8F0872DE97A
:100EF000F05F06468B4617464FF000094FF0010A97
:100F00004FF001087FB959463046FFF7E5FD002450
:100F100006E0BB496031085DFFF764FD601CC4B2A8
:100F2000062CF6DB43E0BA46002508E00A20BAFBAF
:100F3000F0FA08EB88004FEA4008681CC5B2BAF125
:100F4000000FF3D1062000FB05607E2805DD05EBD0
:100F500045004000C0F17E00C6B20A20B8FBF0F8A0
:100F600023E059463046FFF7B7FDB7FBF8F00A21FA
:100F7000B0FBF1F201FB120909F1100000F0FF09CA
:100F8000002409E009EB49019D4A02EB4101085D9B
:100F9000FFF728FD601CC4B2062CF3DB0A20B8FB67
:100FA000F0F8B01DC6B2681EC5B2002DD9DCBDE890
:100FB000F09F2DE9F04385B092A207CA02AB07C3A8
:100FC00093A103C9CDE90001052605274FF00008CC
:100FD0004FF00009002518E000213046FFF77CFDA6
:100FE00000240CE002A9495D203901EB4101844A4B
:100FF00002EB4101085DFFF7F5FC601CC4B2062C52
:10100000F0DBB01DC6B2681CC5B20A2DE4DB0025BA
:1010100018E001213846FFF75FFD00240CE01DF8C1
:101020000510203901EB4101754A02EB4101085DD1
:10103000FFF7D8FC601CC4B2062CF0DBB81DC7B2A9
:10104000681CC5B2062DE4DB002519E003214046EB
:10105000FFF742FD00240BE005F1110101EB410116
:10106000674A02EB4101085DFFF7BCFC601CC4B29B
:10107000062CF1DB08F1100000F0FF08681CC5B277
:10108000082DE3DB002537E006214846FFF724FD65
:101090007DB900240BE005F1190101EB4101584A2B
:1010A00002EB4101085DFFF79DFC601CC4B2062CF9
:1010B000F1DB012D1ADB002406E051496631085DA1
:1010C000FFF790FC601CC4B2062CF6DB00240BE09A
:1010D00005F10F0101EB4101494A02EB4101085DB5
:1010E000FFF780FC601CC4B2062CF1DB09F1100094
:1010F00000F0FF09681CC5B2082DC5DB05B0BDE8CE
:10110000F0832DE9F04107464FF000080026002F3C
:1011100059D0002454E0082C19DA04214046FFF786
:10112000DBFC00250DE0601CB84205D134493C31A0
:10113000485DFFF757FC02E00020FFF753FC681CF6
:10114000C5B2062DEFDB08F1100000F0FF08082CF7
:1011500018D107213046FFF7BFFC00250DE0601CC9
:10116000B84205D126493C31485DFFF73BFC02E01F
:101170000020FFF737FC681CC5B2062DEFDB06F137
:101180001000C6B2082C19DDF11CC8B20721FFF708
:10119000A3FC00250DE0601CB84205D118493C3184
:1011A000485DFFF71FFC02E00020FFF71BFC681CF6
:1011B000C5B2062DEFDB06F11000C6B2601CC4B24A
:1011C000102CA8DB49E0002445E0082C10DA0421AB
:1011D0004046FFF781FC002504E00020FFF702FCF9
:1011E000681CC5B2062DF8DB08F1100000F0FF08FE
:1011F000082C1BD107213046FFF76EFC002510E0BC
:10120000363B0008486F6C642054696D653A0000F5
:1012100053746174653A00000020FFF7E3FB681C1B
:10122000C5B2062DF8DB06F11000C6B2082C10DDA1
:10123000F11CC8B20721FFF74FFC002504E0002095
:10124000FFF7D0FB681CC5B2062DF8DB06F11000D5
:10125000C6B2601CC4B2102CB7DBBDE8F0812DE92A
:10126000FF4107462D26FEA103C9CDE90201FEA1DB
:1012700003C9CDE90001EFB9002418E0012130468F
:10128000FFF72AFC00250CE002A9095D203901EBDB
:101290004101F74A02EB4101485DFFF7A3FB681CDF
:1012A000C5B2062DF0DBB01DC6B2601CC4B2052C61
:1012B000E4DB1CE0002418E001213046FFF70CFCC1
:1012C00000250CE01DF80410203901EB4101E84A2B
:1012D00002EB4101485DFFF785FB681CC5B2062D96
:1012E000F0DBB01DC6B2601CC4B2052CE4DBBDE867
:1012F000FF812DE9F041064646250A2E50DA0021ED
:101300002846FFF7E9FB00240BE006F1100101EB92
:101310004101D74A02EB4101085DFFF763FB601C06
:10132000C4B2062CF1DBA81DC5B200212846FFF788
:10133000D3FB002404E00020FFF754FB601CC4B280
:10134000062CF8DBA81DC5B200212846FFF7C4FB18
:10135000002405E0C749085DFFF744FB601CC4B2E8
:10136000062CF7DBA81DC5B200212846FFF7B4FB09
:10137000002404E00020FFF735FB601CC4B2062CFB
:10138000F8DBA81DC5B200212846FFF7A5FB002405
:1013900004E00020FFF726FB601CC4B2062CF8DB3B
:1013A0000A2E63DB642E61DA00212846FFF794FBE6
:1013B0000A2096FBF0F0C7B200240BE007F1100101
:1013C00001EB4101AA4A02EB4101085DFFF70AFB6C
:1013D000601CC4B2062CF1DBA81DC5B20021284652
:1013E000FFF77AFB0A2096FBF0F100FB1160C7B211
:1013F00000240BE007F1100101EB41019C4A02EBD4
:101400004101085DFFF7EEFA601CC4B2062CF1DB67
:10141000A81DC5B200212846FFF75EFB002404E0AA
:101420000020FFF7DFFA601CC4B2062CF8DBA81D11
:10143000C5B200212846FFF74FFB002405E08D4987
:10144000085DFFF7CFFA601CC4B2062CF7DBA81DBD
:10145000C5B200212846FFF73FFB002404E000202E
:10146000FFF7C0FA601CC4B2062CF8DB642E71DBF7
:1014700000212846FFF730FB642096FBF0F0C7B24E
:1014800000240BE007F1100101EB4101784A02EB67
:101490004101085DFFF7A6FA601CC4B2062CF1DB1F
:1014A000A81DC5B200212846FFF716FB642096FB55
:1014B000F0F100FB11600A2190FBF1F0C7B20024AB
:1014C0000BE007F1100101EB4101694A02EB410118
:1014D000085DFFF787FA601CC4B2062CF1DBA81D7B
:1014E000C5B200212846FFF7F7FA0A2096FBF0F173
:1014F00000FB1160C7B200240BE007F1100101EB03
:1015000041015B4A02EB4101085DFFF76BFA601C89
:10151000C4B2062CF1DBA81DC5B200212846FFF796
:10152000DBFA002404E00020FFF75CFA601CC4B280
:10153000062CF8DBA81DC5B200212846FFF7CCFA1F
:10154000002405E04B49085DFFF74CFA601CC4B26B
:10155000062CF7DBBDE8F0812DE9F04106460F4689
:10156000144616E039463046FFF7B6FA00250BE080
:101570002178203901EB41013D4A02EB4101485DF0
:10158000FFF730FA681CC5B2062DF1DBB01DC6B2FC
:10159000641C20787E2802DC20782028E2DABDE86E
:1015A000F08110B504462CB933A200210846FFF79C
:1015B000D3FF04E033A200210846FFF7CDFF10BDA2
:1015C00010B534A202210020FFF7C6FF34A2022189
:1015D0005A20FFF7C1FF10BD7CB50546E97BA1F19C
:1015E0003300C11700EB117109111031C9B28DF828
:1015F000001002213220FFF76FFA00240BE09DF863
:10160000001001EB41011A4A02EB4101085DFFF7AE
:10161000E9F9601CC4B2062CF1DBE97BA1F13300CF
:10162000C11700EB11710911A0EB01111031C9B202
:101630008DF8011002213820FFF74EFA00240BE04C
:101640009DF8011001EB4101094A02EB4101085DDF
:10165000FFF7C8F9601CC4B2062CF1DB022121E0BF
:1016600057616974200000005374617274000000B7
:10167000363B0008283D0008344753746172743AC1
:101680004F4B0000344753746172743A4641494CE1
:1016900000000000415F506F7765723A0000000063
:1016A0004B5768003E20FFF717FA002405E0254954
:1016B000085DFFF797F9601CC4B2062CF7DBA97B25
:1016C000A1F13300C11700EB117109111031C9B23A
:1016D0008DF8031002214420FFF7FEF900240CE0EE
:1016E0009DF8031001EB4101164A543A02EB410107
:1016F000085DFFF777F9601CC4B2062CF0DBA97B0C
:10170000A1F13300C11700EB11710911A0EB011118
:101710001031C9B28DF8041002214A20FFF7DCF91C
:1017200000240CE09DF8041001EB4101054A543AF5
:1017300002EB4101085DFFF755F9601CC4B2062CAD
:10174000F0DB7CBD8A3B000800B587B00121052095
:1017500000F0FAFE0121480400F003FF0420ADF878
:10176000040003208DF8060018208DF8070001A959
:10177000B94800F03DFC0820ADF8040004208DF8C5
:10178000070001A9B44800F033FC0220ADF80400C2
:1017900010208DF8070003208DF8060001A9AE483F
:1017A00000F026FC0020AD49086026208DF80800D6
:1017B00001208DF809008DF80A008DF80B0002A8B1
:1017C00001F083FA4FF4166003904FF48050ADF8A7
:1017D00010000020ADF812004FF48060ADF8140046
:1017E0000020ADF818000C20ADF8160003A99C48A5
:1017F00001F0D7F8012240F22551994801F04EF945
:101800000121974801F03EF907B000BD10B540F244
:101810002551934801F010FA002840D0904801F07B
:10182000A2F9C4B2682C0FD18E48008807280BD1CA
:1018300001208D4908708D488A4909884454894897
:101840000088401C87490880682C0DD186480078A4
:1018500050B900208349088084480988445481484D
:101860000088401C7F490880162C0BD17F487D4999
:10187000098844547B480088401C7A49088000202D
:1018800079490870682C0AD0162C08D07748754919
:101890000988445473480088401C7249088010BD70
:1018A00000BF6F49098801F040010029F9D0C0F359
:1018B00008016B4A121D118000BF6949098801F0B7
:1018C00040010029F9D0704730B504460D4601208B
:1018D00062490860002301E0581C83B2C82BFBDB7F
:1018E000002304E0E05CFFF7DBFF581C83B2AB424F
:1018F000F8DB00205949086030BD10B510215C4864
:10190000FFF7E2FF002407E00A2000F0D5FA601C90
:10191000C4B2322C00DD03E0524800881228F3D113
:1019200000BF322C04DD00204E490880204610BD47
:10193000002409E04D49601C085C4E490855002010
:1019400048490880601CC4B2062CF3DB0020EEE797
:1019500010B514214848FFF7B7FF07E00A2000F050
:10196000ABFA601CC4B2322C00DD03E03D480088B5
:101970001428F3D100BF322C04DD0020394908803F
:10198000204610BD00203749088000BFF9E700203D
:1019900004E0FE21384A1154411CC8B20428F8DB87
:1019A0006821354A1171002006E032490A5C324B49
:1019B000411D5A54411CC8B20628F6DB68212E4A44
:1019C000D172112111730421517333219173D17399
:1019D0003421117433215174042008E02649897C94
:1019E000254A125C1144244A9174411CC8B2122841
:1019F000F4DB1621204AD1747047002004E0FE2158
:101A00001B4A1154411CC8B20428F8DB6821184A4B
:101A10001171002005E0AA22411D154B5A54411CAA
:101A2000C8B20628F7DB6821114AD172132111735D
:101A300000215173042008E00D49897B0C4A125C97
:101A400011440B4A9173411CC8B20E28F4DB1621D5
:101A5000074AD17370477047000801408401214252
:101A60000044004002000020C60000209C0300202B
:101A700060080020060000204C08002070B50546D4
:101A8000002405E0601CC4B2C82C01DD002070BD3C
:101A90000221D44800F00BFF0028F3D02946D1489A
:101AA00000F0B2FE002405E0601CC4B2C82C01DDC9
:101AB0000020ECE70121CB4800F0F9FE0028F3D02C
:101AC000C84800F0A3FEC0B2E1E700B587B001212D
:101AD00041F2040000F038FD1020ADF818008DF838
:101AE0001B0003208DF81A0006A9BF4800F080FAF9
:101AF0000120BE490860E020ADF8180018208DF8DC
:101B00001B0003208DF81A0006A9B74800F070FAF0
:101B1000E021B54800F019FB0020ADF804004FF4B7
:101B20008270ADF806000020ADF808000220ADF884
:101B30000A000120ADF80C004002ADF80E000820AC
:101B4000ADF810000020ADF812000720ADF8140029
:101B500001A9A44800F082FD0121A24800F023FE63
:101B6000FF20FFF78BFF07B000BD2DE9F0410646CF
:101B70000C46174600209D4908600320FFF77EFFB2
:101B8000C4F30740FFF77AFFC4F30720FFF776FF9F
:101B9000E0B2FFF773FF002505E0FF20FFF76EFFBF
:101BA0007055681C85B2BD42F7DB01208F49086083
:101BB000BDE8F08110B5002400208C490860902019
:101BC000FFF75CFF0020FFF759FF0020FFF756FFEB
:101BD0000020FFF753FFFF20FFF750FF44EA0024E7
:101BE000FF20FFF74BFF044301208149C1F890011A
:101BF000204610BD10B5002400207C490860052057
:101C0000FFF73CFFFF20FFF739FF0446012078492A
:101C1000C1F89001204610BD10B500BFFFF7EAFFE4
:101C200000F001000028F9D110BD10B500206F4967
:101C300008600620FFF722FF01206D49C1F89001DE
:101C400010BD2DE9F04106460C461746FFF7EDFFA3
:101C50000020664908600220FFF710FFC4F3074028
:101C6000FFF70CFFC4F30720FFF708FFE0B2FFF710
:101C700005FF002504E0705DFFF700FF681C85B2DA
:101C8000BD42F8DB012059490860FFF7C5FFBDE8F8
:101C9000F0812DE9F04107460E461446F0B2C0F53A
:101CA0008075AC4200DC254612E02A4631463846B3
:101CB000FFF7C7FFAC4200D10BE02F442E44601B5E
:101CC00084B2B4F5807F02DD4FF4807500E02546D4
:101CD000EBE700BFBDE8F08110B504462403FFF731
:101CE000A4FFFFF799FF0020404908602020FFF77C
:101CF000C5FEC4F30740FFF7C1FEC4F30720FFF79A
:101D0000BDFEE0B2FFF7BAFE01203949C1F89001EB
:101D1000FFF782FF10BD2DE9F05F81460F461646A2
:101D2000DFF8D0B04FEA1738C7F30B0ACAF5805472
:101D3000A64200DC344644E04FEA08314FF48052BA
:101D40005846FFF712FF002508E00AEB05001BF8D4
:101D50000000FF2800D003E0681C85B2A542F4DB38
:101D600000BFA54216DA4046FFF7B6FF002507E0A0
:101D700019F8050005EB0A010BF80100681C85B293
:101D8000A542F5DB4FEA08314FF480525846FFF781
:101D900080FF04E0224639464846FFF77AFFA64214
:101DA00000D10FE008F101084FF0000AA1442744D8
:101DB000301B86B2B6F5805F02DD4FF4805400E040
:101DC0003446B9E700BFBDE8F09F10B500200749D1
:101DD00008600420FFF752FE01200549C1F8900178
:101DE00010BD000000300140000801409001214278
:101DF00000002142700800207FB504460D460121F5
:101E0000022000F0AEFB42F21070ADF8080041F67F
:101E10001F40ADF804000020ADF80A00ADF8060040
:101E200001A9164801F01CF801224121134801F0D4
:101E3000BEFA1D208DF8000000208DF8010003205F
:101E40008DF8020001208DF80300684600F03DFF88
:101E500001210A4801F090FA7FBD10B50121074821
:101E600001F053FD40B10121044801F05FFD044839
:101E70000088401C0249088010BD0000000400409A
:101E80000E00002010B504466FF0040000F067FF5C
:101E9000E11704EB5171C1F3C701234A11701046D9
:101EA000007800EB4001C1EBC0104FF6FF7101EA72
:101EB000C0001E49088010BD01461C4A12884A43D2
:101EC0004FF0E0235A6100229A6101221A6100BF9B
:101ED0004FF0E022106900F001021AB100F48032E4
:101EE000002AF5D000224FF0E0231A619A61704772
:101EF00001460D4A12784A434FF0E0235A6100220E
:101F00009A6101221A6100BF4FF0E022106900F0CF
:101F100001021AB100F48032002AF5D000224FF0FD
:101F2000E0231A619A617047C8000020CA000020AF
:101F300010B50446C448844208D10121042000F0B1
:101F40001DFB0021042000F019FB46E0BF4884423D
:101F500008D10121082000F011FB0021082000F029
:101F60000DFB3AE0BA48844208D10121102000F06C
:101F700005FB0021102000F001FB2EE0B548844253
:101F800008D10121202000F0F9FA0021202000F0E2
:101F9000F5FA22E0B048844208D10121402000F047
:101FA000EDFA0021402000F0E9FA16E0AB48844247
:101FB00008D10121802000F0E1FA0021802000F00A
:101FC000DDFA0AE0A648844207D10121801500F01D
:101FD000D5FA0021A01500F0D1FA10BD10B50121ED
:101FE000084600F0CBFA0021012000F0C7FA10BD2E
:101FF0002DE9F041024600250026002000230024A0
:10200000002791F803C00CF00F0591F803C00CF005
:10201000100CBCF1000F03D091F802C04CEA05058A
:1020200091F800C0BCF1000F31D0146800202BE003
:102030004FF0010C0CFA00F3B1F800C00CEA0306F3
:102040009E4220D183004FF00F0C0CFA03F7BC43E3
:1020500005FA03FC4CEA040491F803C0BCF1280F14
:1020600006D14FF0010C0CFA00FCC2F814C00AE0D3
:1020700091F803C0BCF1480F05D14FF0010C0CFAE8
:1020800000FCC2F810C0401C0828D1D31460B1F87D
:1020900000C0BCF1FF0F34DD546800202EE000F1D9
:1020A000080C4FF0010808FA0CF3B1F800C00CEA74
:1020B00003069E4221D183004FF00F0C0CFA03F768
:1020C000BC4305FA03FC4CEA040491F803C0BCF1DC
:1020D000280F05D100F1080C08FA0CF8C2F814809A
:1020E00091F803C0BCF1480F07D100F1080C4FF084
:1020F000010808FA0CF8C2F81080401C0828CED35A
:102100005460BDE8F0814FF6FF71018002218170BB
:102110000421C17070470246002093680B400BB148
:10212000012000E0002070470146886880B27047B7
:1021300002460020D3680B400BB1012000E00020D4
:1021400070470146C86880B27047016170474161BD
:1021500070470AB1016100E041617047C16070479A
:102160004FF480320A4382618161826182698269AF
:102170007047024600203B4B18684FF680731840AA
:1021800040EA02100843374B186070473649C8616F
:102190007047F0B50A460023002400210025314E87
:1021A0007168C0F3034583B200F44016B6F5401FD2
:1021B00008D121F070612B4E766826F07066294FA9
:1021C0007E6012E000F48016B6F5801F06D103266B
:1021D00006FA05F4A14341F0706106E0460D3601B0
:1021E00003FA06F6B14341F0706122B1460D3601A3
:1021F00003FA06F631431B4E7160F0BD30B5002284
:102200008B071C0F0F2303FA04F2164B08338C10B4
:1022100053F824309343134C08348D1044F8253080
:1022200023468C1053F824308C07240F00FA04F452
:1022300023430C4C08348D1044F8253030BD0A4936
:10224000DC3108607047000000080140000C0140CC
:10225000001001400014014000180140001C014022
:10226000002001400000014000002042DF480068DB
:1022700040F00100DD49086008464068DC4908403C
:10228000DA49486008460068DA490840D7490860DA
:102290000846006820F4802008600846406820F462
:1022A000FE0048604FF41F0088607047CF490968FE
:1022B00021F48031CD4A11601146096821F4802152
:1022C0001160B0F5803F03D0B0F5802F0ED106E04D
:1022D000C649096841F48031C44A116007E0C34926
:1022E000096841F4A021C14A116000E000BF00BFAD
:1022F000704710B501460022002300204A11012A30
:1023000002D1BA4C236806E0022A02D1B74C236AF4
:1023100001E0B64C636A01F01F02012494401C40A6
:102320000CB1012000E0002010BD38B50020009065
:102330000024002500BF3120FFF7DBFF0546009891
:10234000401C00900098B0F5A06F01D0002DF2D095
:102350003120FFF7CEFF08B1012400E00024204621
:1023600038BD01460020A14A106820F0F80040EA7C
:10237000C10010607047A049086070470246002005
:102380009A4B586820F47C1042EA01031843974B9B
:102390005860704798490866704701460020934A84
:1023A000506820F003000843506070478F48406831
:1023B00000F00C007047014600208C4A506820F065
:1023C000F00008435060704701460020874A50687B
:1023D00020F4E06008435060704701460020834AC3
:1023E000506820F4605040EAC1005060704729B145
:1023F0007E4A527A02437D4B5A7204E07B4A527AFB
:1024000082437A4B5A7270477B49D83108607047D3
:1024100001460020754A506820F44040084350604F
:1024200070470021714A20321170704A82F82010E2
:10243000012802D004280AD104E001216B4A20328D
:10244000117005E00521694A2032117000E000BFDB
:1024500000BF70476949086070476449096A0143D1
:10246000624A11627047654944390860704730B567
:1024700000210022002400235C4D6D6805F00C0152
:1024800021B1042905D0082923D105E05C4D056060
:1024900022E05B4D05601FE0544D6D6805F470123D
:1024A000524D6D6805F48034022505EB92421CB94B
:1024B000544D554305600BE04C4D6D6805F40035F7
:1024C0001DB1504D5543056002E04D4D554305602B
:1024D00002E04B4D056000BF00BF444D6D6805F044
:1024E000F0010909484D6B5C0568DD4045603F4DD2
:1024F0006D6805F4E061090A434D6B5C4568DD4099
:1025000085603A4D6D6805F46051C90A3E4D6B5CBB
:102510004568DD40C560354D6D6805F44041890B67
:102520003A4D6B5CC568B5FBF3F5056130BD29B16B
:102530002E4A526902432D4B5A6104E02B4A5269DC
:1025400082432A4B5A61704729B1284A9269024353
:10255000264B9A6104E0254A92698243234B9A6193
:10256000704729B1214AD2690243204BDA6104E065
:102570001E4AD26982431D4BDA61704729B11B4A5A
:10258000D2680243194BDA6004E0184AD2688243E9
:10259000164BDA60704729B1144A12690243134B93
:1025A0001A6104E0114A12698243104B1A617047A4
:1025B00012494039086070470F49C86470470B4999
:1025C000C87170470948406A40F080700749486206
:1025D000704701460020054A92680A400AB101206E
:1025E00000E00020704701498872704700100240E7
:1025F0000000FFF8FFFFF6FE000042428004424266
:1026000000127A0000093D00CC000020DC00002010
:1026100010B50446BE48844208D101218014FFF75A
:10262000ADFF0021A014FFF7A9FF16E0B9488442CE
:1026300008D101210014FFF7AEFF00212014FFF79D
:10264000AAFF0AE0B448844207D10121C013FFF772
:10265000A2FF0021E013FFF79EFF10BD10B500227E
:10266000028802F441520B884C8823438C88234310
:10267000CC8823430C8923434C8923438C892343EF
:10268000CC8923431A430280838B4FF2FF7423408B
:1026900083830B8A038210BD2DE9F04F85B0054678
:1026A0000C464FF0000902274FF000084FF0010BD5
:1026B0000026B246A88B4FF240010840A8830220B2
:1026C0002884B5F81C902089022801D100BF38E089
:1026D000A08810B94FF0010B01E04FF0020B8D48BC
:1026E000854200D100E000BF6846FFF7C0FEDDF87C
:1026F00000A0E088B0F5007F0AD14FEA1A2000EB75
:10270000800040002189B0FBF1F0401D86B20BE053
:102710004FEA4B10BAFBF0F000EB8000400021893B
:10272000B0FBF1F0401D86B20A20B6FBF0F606F0D1
:102730000108A6EB0800C0F34F074FF6FF7000EA50
:102740000828022F01DBFF2F02DD02274FF00008CF
:10275000E08840EA080038432884A088618908435B
:10276000618808432188084340F4006040EA090971
:10277000A5F81C9005B0BDE8F08F002101804180D4
:102780008180C180018141818181C18107210182D4
:1027900070470021018041808180C1800221018138
:1027A00000214181704721B1028842F0400202803D
:1027B00004E002884FF6BF731A400280704721B1CF
:1027C000828B42F48062828304E0828B4FF6FF3377
:1027D0001A408283704730B5002400230C11012574
:1027E000A540ABB21AB185881D43858002E085887B
:1027F0009D43858030BD1AB183880B43838002E0FE
:1028000083888B4383807047818170470146888924
:1028100070474FF6FF62914204D0028842F4807202
:10282000028004E002884FF6FF631A40028070477E
:1028300021B1828842F00402828004E082884FF64F
:10284000FB731A408280704702884FF2FF731A4070
:10285000028002880A4302807047018841F4805157
:102860000180704721B1028842F40052028004E0E6
:1028700002884DF6FF731A4002807047024600201E
:10288000012901D0108B00E0908A70470146088A28
:102890007047B1F5804F04D1028842F48042028033
:1028A00004E002884BF6FF731A400280704702462C
:1028B000002013890B400BB1012000E0002070477D
:1028C000CA4302817047F0B502460020002400236D
:1028D000002501F00F070126BE40B4B20B110126FE
:1028E0009E40B3B2968806EA03051689264016B1C3
:1028F0000DB1012000E00020F0BD10B5002201F074
:102900000F040123A3409AB2D343038110BD0000FA
:102910000030014000380040003C004010B5044643
:10292000E248844209D101218803FFF727FE0021F4
:102930004FF48040FFF722FE32E0DD48844209D1A7
:1029400001214804FFF727FE00214FF40030FFF774
:1029500022FE25E0D748844209D101218804FFF7EF
:102960001AFE00214FF48020FFF715FE18E0D24830
:10297000844209D10121C804FFF70DFE00214FF464
:102980000020FFF708FE0BE0CC48844208D101216B
:102990000805FFF700FE00214FF48010FFF7FBFD54
:1029A00010BD2DE9F04786B005460E460024A2462C
:1029B00000BF00BF0027B08900B100BF2F462C8A9E
:1029C0004CF6FF700440F08804432C82AC894EF62C
:1029D000F3100440B08831890843718908430443E7
:1029E000AC81AC8A4FF6FF400440B0890443AC820E
:1029F00001A8FFF73CFDAD48874202D1DDF810A0E9
:102A000001E0DDF80CA00AEBCA0000EB0A10316807
:102A10008900B0FBF1F86420B8FBF0F00401200954
:102A2000642101FB1089322000EB0910B0FBF1F0AA
:102A300000F00F0004432C8106B0BDE8F0874FF48E
:102A40001651016000218180C18001810C214181EA
:102A500000218181704710B502460020108A4FF294
:102A6000FF0318400B884C8823438C882343CC8871
:102A700023431843108210BD0021018041808180D2
:102A8000C180704721B1828942F40052828104E002
:102A900082894DF6FF731A4082817047F0B5034674
:102AA000002400260025002040F66A17B94200D114
:102AB00000BF1846C1F3421401F01F06012707FAB0
:102AC00006F5012C01D10C3004E0022C01D11030AC
:102AD00000E014301AB107682F43076002E007686E
:102AE000AF430760F0BD1AB1838A0B43838202E0D3
:102AF000838A8B4383827047028A4FF6F0731A40B1
:102B00000282028A0A430282704782894FF2FF736F
:102B10001A40828182890A438281704721B1828969
:102B200042F00202828104E082894FF6FD731A406E
:102B300082817047028A4FF6DF731A400282028A4E
:102B40000A430282704721B1028A42F48042028223
:102B500004E0028A4BF6FF731A4002827047C1F309
:102B600008028280704701468888C0F308007047D9
:102B7000818941F0010181817047028BD2B20283C9
:102B8000028B42EA012202837047028B02F47F42E9
:102B90000283028B0A430283704721B1828A42F08A
:102BA0002002828204E0828A4FF6DF731A4082821A
:102BB000704721B1828A42F01002828204E0828A48
:102BC0004FF6EF731A408282704721B1828A42F039
:102BD0000802828204E0828A4FF6F7731A408282EA
:102BE0007047828A4FF6FB731A408282828A0A43B8
:102BF0008282704721B1828A42F00202828204E01E
:102C0000828A4FF6FD731A40828270470246002086
:102C1000B1F5007F00D100BF13880B400BB101203C
:102C200000E00020704701F40072B2F5007F00D18F
:102C300000BFCA430280704770B5024600240023DB
:102C40000025002040F66A16B14200D100BFC1F352
:102C5000421501F01F03012606FA03F3012D02D1EC
:102C60009689334006E0022D02D1168A334001E0F6
:102C7000968A33400C12012606FA04F41688344072
:102C800013B10CB1012000E0002070BD10B500228E
:102C9000002340F66A14A14200D100BF0A120124A9
:102CA0009440A3B2DC43048010BD00000038014012
:102CB0000044004000480040004C004000500040EC
:102CC00031490143314A1160704770B5002100233A
:102CD0000F22C47804B32D4C246804F4E064C4F5D6
:102CE000E064210AC1F10403CA40447804FA03F104
:102CF0008478144021430901254C0678A1550478B5
:102D000004F01F050124AC4005786D11AD0005F1FC
:102D1000E025C5F8004109E0047804F01F0501240E
:102D2000AC401C4D0678761145F8264070BD1A4A15
:102D30000A400243154B1B1F1A60704739B1134AF2
:102D4000121D12680243114B1B1D1A6006E00F4A48
:102D5000121D126882430D4B1B1D1A607047042818
:102D600008D14FF0E021096941F004014FF0E02261
:102D7000116107E04FF0E021096921F004014FF0F3
:102D8000E0221161704700000000FA050CED00E040
:102D900000E400E080E100E080FFFF1F10B5044682
:102DA000FE48844208D10121C014FFF7E7FB00214F
:102DB000E014FFF7E3FB52E0B4F1804F08D10121AA
:102DC0000846FFF7E8FB00210120FFF7E4FB46E09F
:102DD000F348844208D101210220FFF7DCFB0021E7
:102DE0000220FFF7D8FB3AE0EE48844208D10121E7
:102DF0000420FFF7D0FB00210420FFF7CCFB2EE0DE
:102E0000E948844208D101210820FFF7C4FB0021D2
:102E10000820FFF7C0FB22E0E448844208D10121EA
:102E20001020FFF7B8FB00211020FFF7B4FB16E0DD
:102E3000DF48844208D101212020FFF7ACFB0021AC
:102E40002020FFF7A8FB0AE0DA48844207D10121DD
:102E50004014FFF793FB00216014FFF78FFB10BDB8
:102E6000028802F08F020280CA884B881A430388C6
:102E70001A4302808A8882850A880285C74A90425E
:102E800002D0CC4A904201D10A7A02860122828283
:102E9000704770B5002400220023058C4FF6FE76A3
:102EA00035400584028C8388048B4FF68F752C4047
:102EB0000D882C43751E2A400D892A434D882A43CC
:102EC000CD888586B54DA84202D0BA4DA84213D10F
:102ED0004FF6F7752A404D892A434FF6FB752A4075
:102EE0008D882A4347F6FF652B4047F6FF552B4058
:102EF0008D892B43CD892B4383800483028470BD4D
:102F000070B5002400220023058C4FF6EF76354083
:102F10000584028C8388048B48F6FF752C400D884D
:102F20004FF6FF7606EA05252C434FF6DF752A405B
:102F30000D8906EA05152A434D8806EA05152A4338
:102F4000CD880587954DA84202D09A4DA8421DD143
:102F50004FF67F752A404D894FF6FF7606EA051534
:102F60002A434FF6BF752A408D8806EA05152A4385
:102F700047F6FF352B4047F2FF752B408D8906EA57
:102F800085052B43CD8906EA85052B438380048381
:102F9000028470BD70B5002400220023058C4FF61A
:102FA000FF6635400584028C8388848B4FF68F75CD
:102FB0002C400D882C434FF6FF552A400D894FF6C3
:102FC000FF7606EA05252A434D8806EA05252A43A9
:102FD000CD888587714DA84202D0764DA8421DD17B
:102FE0004FF2FF752A404D894FF6FF7606EA052518
:102FF0002A434FF6FF352A408D8806EA05252A43E5
:1030000046F6FF752B4045F6FF752B408D8906EA85
:1030100005152B43CD8906EA05152B438380848350
:10302000028470BD70B5002400220023058C4EF68A
:10303000FF7635400584028C8388848B48F6FF75C3
:103040002C400D884FF6FF7606EA05252C434DF6F9
:10305000FF752A400D8906EA05352A434D8806EAA0
:1030600005352A43CD88A0F840504C4DA84202D0E7
:10307000504DA84207D1C3F30D038D894FF6FF765B
:1030800006EA85152B4383808483028470BD828B7E
:103090004FF2FF331A408283828B4FF6FF7303EAAD
:1030A00001231A4382837047F0B50C461546002170
:1030B00000220026078C4EF6FF7C07EA0C070784E7
:1030C000818B028C4FF6FF7707EA043640F6FF4704
:1030D00039404FF6FF7707EA052739434FF6FF7768
:1030E00007EA033739434DF6FF773A4046F48057F5
:1030F0003A4381830284F0BD828B4FF6F3731A400A
:103100008283828B0A4382837047F0B50C46154652
:10311000002100220026078C4FF6FF6C07EA0C07FF
:103120000784818B028C4FF6FF7707EA04264FF65F
:103130000C7739404FF6FF7707EA03172F433943DF
:103140004FF6FF573A4046F480773A438183028432
:10315000F0BD028B4FF2FF331A400283028B4FF611
:10316000FF7303EA01231A4302837047F0B50C464C
:103170001546002100220026078C4FF6EF7C07EA57
:103180000C070784018B028C4FF6FF7707EA0416C1
:1031900040F6FF4739404FF6FF770DE0002C014025
:1031A0000004004000080040000C004000100040F7
:1031B000001400400034014007EA033739434FF65A
:1031C000FF7707EA052739434FF6DF773A4046F0A5
:1031D00010073A4301830284F0BD028B4FF6F3736C
:1031E0001A400283028B0A4302837047F0B50C46F3
:1031F000154600210022068C4FF6FE773E400684DD
:10320000018B028C4FF60C7631407E1C06EA0316C9
:103210002E4331437E1E324044F001063243018387
:103220000284F0BD70B505460C46208850B923894C
:10323000A28861882846FFF7D9FFE1882846FFF772
:10324000CCFF25E0208804280AD12389A288618840
:103250002846FFF78BFFE1882846FFF77AFF17E043
:10326000208808280AD12389A28861882846FFF788
:103270004CFFE1882846FFF73FFF09E02389A28839
:1032800061882846FFF710FFE1882846FFF7FFFE18
:1032900070BD2DE9F04105460C46002601276088E7
:1032A00008B9022600E00026A088012801D10227E3
:1032B00000E001272088A0B92389A28861882846D8
:1032C000FFF794FFE1882846FFF787FF23893A46F6
:1032D00031462846FFF74AFFE1882846FFF739FFC5
:1032E00013E02389A28861882846FFF73FFFE18821
:1032F0002846FFF72EFF23893A4631462846FFF736
:1033000075FFE1882846FFF768FFBDE8F0810A886D
:103310004B881A438B881A43CB881A430B891A436C
:103320004B891A438B891A43A0F8442070474FF603
:10333000FF71818000210180C1804180017270474E
:103340000021018041808180C18001814181818192
:10335000C1817047002101804180012181800021CD
:10336000C180018170470021018041808180C1803E
:10337000018141818181704721B1028842F00102BF
:10338000028004E0028840F2FE331A400280704757
:1033900031B1B0F8442042F40042A0F8442005E0E6
:1033A000B0F84420C2F30E02A0F8442070471AB1CE
:1033B00083890B43838102E083898B438381704738
:1033C0008182704741EA0203A0F8483070471AB181
:1033D00083890B43838102E083898B438381704718
:1033E00001894FF6F8721140018170470A460021A9
:1033F00001894FF68F73194011430181704730B531
:1034000004460D4629462046FFF7F0FF208940F08C
:103410000700208130BD2DE9F04104460D461646D7
:103420001F46602D06D13B46012231462046FFF75C
:103430009DFE05E03B46012231462046FFF7D6FEC1
:1034400029462046FFF7D2FF208940F0070020815F
:10345000BDE8F08130B50C4600210189C9B24FF6B4
:10346000FF7505EA0325154325432943018130BD36
:103470002DE9F04105460E4617469846002443467E
:103480003A4631462846FFF7E5FF2C894FF6F8709B
:10349000044044F007044FF68F70044044F0700479
:1034A0002C81BDE8F081F0B504460D4616461F4656
:1034B0003B46324629462046FFF7CCFF208940F4A0
:1034C00080402081F0BD0185828270470A4600213C
:1034D000018840F28F331940114301807047F0B5E5
:1034E0000C4615461E460021002200230189028B4E
:1034F000038C4FF6F877394021434FF6FC473A40AA
:1035000040F201173A434FF6DD773B404FF6FF7725
:1035100007EA06172F433B43018102830384F0BD72
:103520000A460021018B4FF68F7319401143018326
:1035300070470A460021018B48F6FF7319404FF689
:10354000FF7303EA02231943018370470A460021EF
:10355000818B4FF68F7319401143818370470A4660
:103560000021818B48F6FF7319404FF6FF7303EA81
:10357000022319438183704721B1028842F08002FF
:10358000028004E0028840F27F331A4002807047D4
:1035900021B1828842F00402828004E082884FF6E2
:1035A000FB731A408280704721B1828842F0080282
:1035B000828004E082884FF6F7731A408280704759
:1035C00021B1828842F00102828004E082884FF6B5
:1035D000FE731A40828070470A460021018B4FF625
:1035E000F77319401143018370470A460021018B8C
:1035F0004FF2FF7319404FF6FF7303EA022319439A
:10360000018370470A460021818B4FF6F7731940FA
:103610001143818370470A460021818B4FF2FF736B
:1036200019404FF6FF7303EA022319438183704761
:103630000A460021018B4FF6FB73194011430183A9
:1036400070470A460021018B4FF6FF3319404FF6B1
:10365000FF7303EA02231943018370470A460021DE
:10366000818B4FF6FB7319401143818370470A46E3
:103670000021818B4FF6FF3319404FF6FF7303EAA9
:1036800002231943818370470A460021018B4FF6BC
:103690007F7319401143018370470A460021018B53
:1036A000C1F30E014FF6FF7303EA022319430183AE
:1036B00070470A460021818B4FF67F7319401143F2
:1036C000818370470A460021818BC1F30E014FF6BA
:1036D000FF7303EA02231943818370470A460021DE
:1036E000018C4FF6FD7319401143018470470A465F
:1036F0000021018C4FF6F773194011430184704784
:103700000A460021018C4FF6DF7319404FF6FF7314
:1037100003EA02131943018470470A460021018C11
:103720004FF67F7319404FF6FF7303EA02131943F4
:10373000018470470A460021018C4FF6FF5319405F
:103740004FF6FF7303EA02231943018470470A46C8
:103750000021018C4FF2FF7319404FF6FF7303EA0B
:1037600002231943018470470A460021018C4DF65B
:10377000FF7319404FF6FF7303EA023319430184C4
:10378000704730B5002301248C40A3B2048C9C43C5
:103790000484048C02FA01F5ADB22C43048430BDDC
:1037A00030B5002304248C40A3B2048C9C430484D1
:1037B000048C02FA01F5ADB22C43048430BD70B51F
:1037C0000346002000241846183001258D40ACB275
:1037D0001D8CA5431D8409B108290AD100EB6100A5
:1037E00005684FF68F76354005600568154305601E
:1037F0000FE00D1FC5F34E052844056848F6FF7617
:103800003540056005684FF6FF7606EA0226354327
:10381000056070BD21B1028842F00202028004E01E
:10382000028840F2FD331A400280704721B10288BD
:1038300042F00402028004E0028840F2FB331A40A6
:103840000280704721B1828842F08002828004E0C9
:1038500082884FF67F731A4082807047028840F258
:10386000F7331A40028002880A4302807047828838
:103870004FF68F731A40828082880A438280704795
:1038800002894FF6F8731A40028102890A430281C5
:10389000704702894FF67F731A40028102890A43FA
:1038A00002817047818470478185704781867047A7
:1038B0000187704781877047A0F8401070470288E1
:1038C000D2B2028002880A43028070470146888E85
:1038D00070470146088F70470146888F7047014640
:1038E000B1F8400070470146888C70470146088D4A
:1038F000704702460020138A0B400BB1012000E004
:1039000000207047CA430282704730B5024600204B
:1039100000230024158A05EA0103958905EA0104BC
:1039200013B10CB1012000E0002030BDCA43028277
:10393000704700000CB500200190009048480068D6
:1039400040F480304649086000BF4548006800F4F4
:10395000003000900198401C0190009818B901981F
:10396000B0F5A06FF1D13E48006800F4003010B10E
:103970000120009001E0002000900098012844D12F
:103980003848006840F01000364908600846006872
:1039900020F0030008600846006840F0020008605C
:1039A0002F4840682E4948600846406848600846ED
:1039B000406840F4806048600846406820F47C100D
:1039C00048600846406840F4E810486008460068CF
:1039D00040F08070086000BF2148006800F000706F
:1039E0000028F9D01E48406820F003001C494860B8
:1039F0000846406840F00200486000BF1848406830
:103A000000F00C000828F9D101E000BFFEE70CBD72
:103A100010B5FFF78FFF10BD10B51148006840F0DA
:103A200001000F490860084640680F4908400C49EA
:103A30004860084600680D49084009490860084682
:103A4000006820F4802008600846406820F4FE00EA
:103A500048604FF41F008860FFF7DAFF10BD0000D8
:103A600000100240002002400000FFF8FFFFF6FEB9
:103A700070470B4880470B4981F308880A48004784
:103A8000FEE7FEE7FEE7FEE7FEE7FEE7FEE7FEE70E
:103A9000FEE7FEE705480649064A074B7047000067
:103AA000713A0008D020002031010008D018002011
:103AB000D0200020D01C0020D01C00207047704770
:103AC0007047754600F02CF8AE460500694653462F
:103AD00020F00700854618B020B5FFF7DBFFBDE8F2
:103AE00020404FF000064FF000074FF000084FF065
:103AF000000B21F00701AC46ACE8C009ACE8C009F6
:103B0000ACE8C009ACE8C0098D46704710B5044662
:103B1000AFF300802046BDE81040FCF750BB00002A
:103B2000004870477018002001491820ABBEFEE71E
:103B30002600020070470000000000000000002F77
:103B4000000000000700070000147F147F14002409
:103B50002A7F2A1200626408132300364955225036
:103B600000000503000000001C224100000041226B
:103B70001C000014083E08140008083E0808000055
:103B800000A060000008080808080000606000004D
:103B9000002010080402003E5149453E0000427FCB
:103BA0004000004261514946002141454B31001817
:103BB00014127F10002745454539003C4A494930D9
:103BC0000001710905030036494949360006494993
:103BD000291E00003636000000005636000000089E
:103BE000142241000014141414140000412214087B
:103BF00000020151090600324959513E007C121160
:103C0000127C007F49494936003E41414122007FF4
:103C10004141221C007F49494941007F09090901AE
:103C2000003E4149497A007F0808087F0000417F33
:103C30004100002040413F01007F08142241007FE5
:103C400040404040007F020C027F007F0408107F4C
:103C5000003E4141413E007F09090906003E4151B5
:103C6000215E007F09192946004649494931000172
:103C7000017F0101003F4040403F001F2040201FC6
:103C8000003F4038403F0063140814630007087089
:103C9000080700615149454300007F41410000553C
:103CA0002A552A55000041417F0000040201020408
:103CB00000404040404000000102040000205454F5
:103CC0005478007F48444438003844444420003845
:103CD0004444487F00385454541800087E090102B7
:103CE0000018A4A4A47C007F080404780000447D8C
:103CF0004000004080847D00007F102844000000C8
:103D0000417F4000007C04180478007C080404789B
:103D100000384444443800FC242424180018242487
:103D200018FC007C08040408004854545420000483
:103D30003F444020003C4040207C001C2040201C90
:103D4000003C4030403C004428102844001CA0A007
:103D5000A07C004464544C448080808080800000BB
:103D6000803D000800000020E00000006C01000819
:103D7000603E0008E0000020F01F000088010008FD
:103D80000000000000000000000000000000000033
:103D9000000000000000004154490D0A41542B432B
:103DA00050494E3F0D0A41542B4353510D0A415483
:103DB0002B51485454504346473D22636F6E7465FF
:103DC00078746964222C310D0A41542B51485454A3
:103DD000504346473D22726573706F6E7365686528
:103DE00061646572222C310D0A41542B51494143C3
:103DF000543F0D0A41542B51494143543D310D0A62
:103E000041542B514854545055524C3D38372C385E
:103E1000300D0A0041542B51485454504745543DED
:103E200038300D0A41542B514854545052454144A6
:103E30003D38300D0A415444313539333339363643
:103E40003631393B0D0A0000000000000000000080
:103E5000010203040102030406070809020406081C
:0400000508000131BD
:00000001FF
